{
  "contractName": "PostBox",
  "abi": [
    {
      "constant": false,
      "inputs": [
        {
          "name": "text",
          "type": "string"
        }
      ],
      "name": "postMsg",
      "outputs": [],
      "payable": false,
      "stateMutability": "nonpayable",
      "type": "function"
    },
    {
      "constant": true,
      "inputs": [],
      "name": "getMsg",
      "outputs": [
        {
          "name": "",
          "type": "string"
        }
      ],
      "payable": false,
      "stateMutability": "view",
      "type": "function"
    }
  ],
  "bytecode": "0x608060405234801561001057600080fd5b506102a5806100206000396000f30060806040526004361061004c576000357c0100000000000000000000000000000000000000000000000000000000900463ffffffff168063b0fa101814610051578063b5fdeb231461008c575b600080fd5b34801561005d57600080fd5b5061008a60048036038101908080359060200190820180359060200191909192939192939050505061011c565b005b34801561009857600080fd5b506100a1610132565b6040518080602001828103825283818151815260200191508051906020019080838360005b838110156100e15780820151818401526020810190506100c6565b50505050905090810190601f16801561010e5780820380516001836020036101000a031916815260200191505b509250505060405180910390f35b81816000919061012d9291906101d4565b505050565b606060008054600181600116156101000203166002900480601f0160208091040260200160405190810160405280929190818152602001828054600181600116156101000203166002900480156101ca5780601f1061019f576101008083540402835291602001916101ca565b820191906000526020600020905b8154815290600101906020018083116101ad57829003601f168201915b5050505050905090565b828054600181600116156101000203166002900490600052602060002090601f016020900481019282601f1061021557803560ff1916838001178555610243565b82800160010185558215610243579182015b82811115610242578235825591602001919060010190610227565b5b5090506102509190610254565b5090565b61027691905b8082111561027257600081600090555060010161025a565b5090565b905600a165627a7a72305820c13c07f7c2587c0b98dd03ceef54262af9a10f56a7b81f75152599c8608934be0029",
  "source": "pragma solidity ^0.4.11;\n\ncontract PostBox {\n    string message;\n    \n    function postMsg(string text) external {\n        message = text;\n    }\n\n    function getMsg() public view returns (string) {\n        return message;\n    }\n}",
  "sourcePath": "/media/pyofey/DATA/Coding/Web/2018_10_29_azure_truffle/contracts/PostBox.sol",
  "compiler": {
    "name": "solc",
    "version": "0.4.24+commit.e67f0147.Emscripten.clang"
  },
  "schemaVersion": "2.0.1",
  "updatedAt": "2019-02-08T16:02:26.881Z"
}