{
  "contractName": "SupplychainFactory",
  "abi": [
    {
      "constant": true,
      "inputs": [
        {
          "name": "",
          "type": "uint256"
        }
      ],
      "name": "deployedSupplychains",
      "outputs": [
        {
          "name": "",
          "type": "address"
        }
      ],
      "payable": false,
      "stateMutability": "view",
      "type": "function"
    },
    {
      "constant": false,
      "inputs": [
        {
          "name": "description",
          "type": "string"
        },
        {
          "name": "freightCarrier",
          "type": "address"
        },
        {
          "name": "originCustoms",
          "type": "address"
        },
        {
          "name": "consignee",
          "type": "address"
        }
      ],
      "name": "createSupplyChain",
      "outputs": [
        {
          "name": "newSupplychain",
          "type": "address"
        }
      ],
      "payable": false,
      "stateMutability": "nonpayable",
      "type": "function"
    },
    {
      "constant": true,
      "inputs": [],
      "name": "getDeployedSupplyChain",
      "outputs": [
        {
          "name": "",
          "type": "address[]"
        }
      ],
      "payable": false,
      "stateMutability": "view",
      "type": "function"
    }
  ],
  "bytecode": "0x608060405234801561001057600080fd5b50613cc7806100206000396000f300608060405260043610610057576000357c0100000000000000000000000000000000000000000000000000000000900463ffffffff168063371278c91461005c57806341236348146100c9578063f9af908c146101d2575b600080fd5b34801561006857600080fd5b506100876004803603810190808035906020019092919050505061023e565b604051808273ffffffffffffffffffffffffffffffffffffffff1673ffffffffffffffffffffffffffffffffffffffff16815260200191505060405180910390f35b3480156100d557600080fd5b50610190600480360381019080803590602001908201803590602001908080601f0160208091040260200160405190810160405280939291908181526020018383808284378201915050505050509192919290803573ffffffffffffffffffffffffffffffffffffffff169060200190929190803573ffffffffffffffffffffffffffffffffffffffff169060200190929190803573ffffffffffffffffffffffffffffffffffffffff16906020019092919050505061027c565b604051808273ffffffffffffffffffffffffffffffffffffffff1673ffffffffffffffffffffffffffffffffffffffff16815260200191505060405180910390f35b3480156101de57600080fd5b506101e7610453565b6040518080602001828103825283818151815260200191508051906020019060200280838360005b8381101561022a57808201518184015260208101905061020f565b505050509050019250505060405180910390f35b60008181548110151561024d57fe5b906000526020600020016000915054906101000a900473ffffffffffffffffffffffffffffffffffffffff1681565b6000338585858561028b6104e1565b808673ffffffffffffffffffffffffffffffffffffffff1673ffffffffffffffffffffffffffffffffffffffff168152602001806020018573ffffffffffffffffffffffffffffffffffffffff1673ffffffffffffffffffffffffffffffffffffffff1681526020018473ffffffffffffffffffffffffffffffffffffffff1673ffffffffffffffffffffffffffffffffffffffff1681526020018373ffffffffffffffffffffffffffffffffffffffff1673ffffffffffffffffffffffffffffffffffffffff168152602001828103825286818151815260200191508051906020019080838360005b83811015610390578082015181840152602081019050610375565b50505050905090810190601f1680156103bd5780820380516001836020036101000a031916815260200191505b509650505050505050604051809103906000f0801580156103e2573d6000803e3d6000fd5b50905060008190806001815401808255809150509060018203906000526020600020016000909192909190916101000a81548173ffffffffffffffffffffffffffffffffffffffff021916908373ffffffffffffffffffffffffffffffffffffffff16021790555050949350505050565b606060008054806020026020016040519081016040528092919081815260200182805480156104d757602002820191906000526020600020905b8160009054906101000a900473ffffffffffffffffffffffffffffffffffffffff1673ffffffffffffffffffffffffffffffffffffffff168152602001906001019080831161048d575b5050505050905090565b6040516137aa806104f283390190560060806040523480156200001157600080fd5b50604051620037aa380380620037aa83398101806040528101908080519060200190929190805182019291906020018051906020019092919080519060200190929190805190602001909291905050506040805190810160405280601981526020017f537570706c79436861696e5472616e73706f72746174696f6e000000000000008152506040805190810160405280601981526020017f537570706c79436861696e5472616e73706f72746174696f6e000000000000008152508160009080519060200190620000e592919062000416565b508060019080519060200190620000fe92919062000416565b50505084600360016101000a81548173ffffffffffffffffffffffffffffffffffffffff021916908373ffffffffffffffffffffffffffffffffffffffff16021790555083600490805190602001906200015a92919062000416565b506000600560006101000a81548160ff0219169083600b8111156200017b57fe5b021790555082600560016101000a81548173ffffffffffffffffffffffffffffffffffffffff021916908373ffffffffffffffffffffffffffffffffffffffff16021790555081600660006101000a81548173ffffffffffffffffffffffffffffffffffffffff021916908373ffffffffffffffffffffffffffffffffffffffff16021790555080600a60006101000a81548173ffffffffffffffffffffffffffffffffffffffff021916908373ffffffffffffffffffffffffffffffffffffffff16021790555060024290806001815401808255809150509060018203906000526020600020016000909192909190915055506200028862000293640100000000026401000000009004565b5050505050620004c5565b7f5164ff06e10737dceb282871701b28082988339e79ba9d49c6c9b0e00312982b60006001336040518080602001806020018473ffffffffffffffffffffffffffffffffffffffff1673ffffffffffffffffffffffffffffffffffffffff1681526020018381038352868181546001816001161561010002031660029004815260200191508054600181600116156101000203166002900480156200037c5780601f1062000350576101008083540402835291602001916200037c565b820191906000526020600020905b8154815290600101906020018083116200035e57829003601f168201915b5050838103825285818154600181600116156101000203166002900481526020019150805460018160011615610100020316600290048015620004035780601f10620003d75761010080835404028352916020019162000403565b820191906000526020600020905b815481529060010190602001808311620003e557829003601f168201915b50509550505050505060405180910390a1565b828054600181600116156101000203166002900490600052602060002090601f016020900481019282601f106200045957805160ff19168380011785556200048a565b828001600101855582156200048a579182015b82811115620004895782518255916020019190600101906200046c565b5b5090506200049991906200049d565b5090565b620004c291905b80821115620004be576000816000905550600101620004a4565b5090565b90565b6132d580620004d56000396000f3006080604052600436106101cd576000357c0100000000000000000000000000000000000000000000000000000000900463ffffffff16806304c0a755146101d257806307fd3687146101e95780630838d275146102795780630f8eeedb14610290578063121e49cd146102bf578063131f00e91461034f57806313ec4048146104d0578063387ac791146104e75780633b2e3c9c146104fe5780633be68526146105ad57806341c0e1b5146105f05780634538d82714610607578063495896191461069757806351f69285146107005780635f6d157714610790578063657f3b85146108205780636d596202146108b0578063715b208b146109405780638191745f14610a9657806385090ac714610b2657806389ffce5214610b7d578063911ee4a314610bd45780639445eb3a14610c2b5780639d98449b14610c42578063a7585d2614610c99578063aedc2aa214610d29578063b2b4a2d714610d40578063b7f5ccb914610dd0578063b866519414610e33578063d2786ba414610e4a578063da2939fb14610f49578063da955c6514610fd9578063f1b6dccd14611042578063f34d64f81461107b578063f5ec14cb146110e4578063f6c96e2d1461113b578063feeeeac014611192575b600080fd5b3480156101de57600080fd5b506101e76111e9565b005b3480156101f557600080fd5b506101fe61130d565b6040518080602001828103825283818151815260200191508051906020019080838360005b8381101561023e578082015181840152602081019050610223565b50505050905090810190601f16801561026b5780820380516001836020036101000a031916815260200191505b509250505060405180910390f35b34801561028557600080fd5b5061028e6113ab565b005b34801561029c57600080fd5b506102a56114cf565b604051808215151515815260200191505060405180910390f35b3480156102cb57600080fd5b506102d46114e2565b6040518080602001828103825283818151815260200191508051906020019080838360005b838110156103145780820151818401526020810190506102f9565b50505050905090810190601f1680156103415780820380516001836020036101000a031916815260200191505b509250505060405180910390f35b34801561035b57600080fd5b506104ce600480360381019080803590602001908201803590602001908080601f0160208091040260200160405190810160405280939291908181526020018383808284378201915050505050509192919290803590602001908201803590602001908080601f0160208091040260200160405190810160405280939291908181526020018383808284378201915050505050509192919290803590602001908201803590602001908080601f0160208091040260200160405190810160405280939291908181526020018383808284378201915050505050509192919290803590602001908201803590602001908080601f0160208091040260200160405190810160405280939291908181526020018383808284378201915050505050509192919290803590602001908201803590602001908080601f0160208091040260200160405190810160405280939291908181526020018383808284378201915050505050509192919290505050611580565b005b3480156104dc57600080fd5b506104e5611718565b005b3480156104f357600080fd5b506104fc61183b565b005b34801561050a57600080fd5b506105ab600480360381019080803590602001908201803590602001908080601f0160208091040260200160405190810160405280939291908181526020018383808284378201915050505050509192919290803590602001908201803590602001908080601f016020809104026020016040519081016040528093929190818152602001838380828437820191505050505050919291929050505061195f565b005b3480156105b957600080fd5b506105ee600480360381019080803573ffffffffffffffffffffffffffffffffffffffff169060200190929190505050611aaf565b005b3480156105fc57600080fd5b50610605611c11565b005b34801561061357600080fd5b5061061c611d42565b6040518080602001828103825283818151815260200191508051906020019080838360005b8381101561065c578082015181840152602081019050610641565b50505050905090810190601f1680156106895780820380516001836020036101000a031916815260200191505b509250505060405180910390f35b3480156106a357600080fd5b506106fe600480360381019080803590602001908201803590602001908080601f0160208091040260200160405190810160405280939291908181526020018383808284378201915050505050509192919290505050611de0565b005b34801561070c57600080fd5b50610715611f18565b6040518080602001828103825283818151815260200191508051906020019080838360005b8381101561075557808201518184015260208101905061073a565b50505050905090810190601f1680156107825780820380516001836020036101000a031916815260200191505b509250505060405180910390f35b34801561079c57600080fd5b506107a5611fb6565b6040518080602001828103825283818151815260200191508051906020019080838360005b838110156107e55780820151818401526020810190506107ca565b50505050905090810190601f1680156108125780820380516001836020036101000a031916815260200191505b509250505060405180910390f35b34801561082c57600080fd5b50610835612054565b6040518080602001828103825283818151815260200191508051906020019080838360005b8381101561087557808201518184015260208101905061085a565b50505050905090810190601f1680156108a25780820380516001836020036101000a031916815260200191505b509250505060405180910390f35b3480156108bc57600080fd5b506108c56120f2565b6040518080602001828103825283818151815260200191508051906020019080838360005b838110156109055780820151818401526020810190506108ea565b50505050905090810190601f1680156109325780820380516001836020036101000a031916815260200191505b509250505060405180910390f35b34801561094c57600080fd5b50610955612190565b604051808773ffffffffffffffffffffffffffffffffffffffff1673ffffffffffffffffffffffffffffffffffffffff1681526020018673ffffffffffffffffffffffffffffffffffffffff1673ffffffffffffffffffffffffffffffffffffffff1681526020018573ffffffffffffffffffffffffffffffffffffffff1673ffffffffffffffffffffffffffffffffffffffff1681526020018473ffffffffffffffffffffffffffffffffffffffff1673ffffffffffffffffffffffffffffffffffffffff1681526020018373ffffffffffffffffffffffffffffffffffffffff1673ffffffffffffffffffffffffffffffffffffffff1681526020018273ffffffffffffffffffffffffffffffffffffffff1673ffffffffffffffffffffffffffffffffffffffff168152602001965050505050505060405180910390f35b348015610aa257600080fd5b50610aab61227f565b6040518080602001828103825283818151815260200191508051906020019080838360005b83811015610aeb578082015181840152602081019050610ad0565b50505050905090810190601f168015610b185780820380516001836020036101000a031916815260200191505b509250505060405180910390f35b348015610b3257600080fd5b50610b3b61231d565b604051808273ffffffffffffffffffffffffffffffffffffffff1673ffffffffffffffffffffffffffffffffffffffff16815260200191505060405180910390f35b348015610b8957600080fd5b50610b92612343565b604051808273ffffffffffffffffffffffffffffffffffffffff1673ffffffffffffffffffffffffffffffffffffffff16815260200191505060405180910390f35b348015610be057600080fd5b50610be9612369565b604051808273ffffffffffffffffffffffffffffffffffffffff1673ffffffffffffffffffffffffffffffffffffffff16815260200191505060405180910390f35b348015610c3757600080fd5b50610c4061238f565b005b348015610c4e57600080fd5b50610c576125ca565b604051808273ffffffffffffffffffffffffffffffffffffffff1673ffffffffffffffffffffffffffffffffffffffff16815260200191505060405180910390f35b348015610ca557600080fd5b50610cae6125f0565b6040518080602001828103825283818151815260200191508051906020019080838360005b83811015610cee578082015181840152602081019050610cd3565b50505050905090810190601f168015610d1b5780820380516001836020036101000a031916815260200191505b509250505060405180910390f35b348015610d3557600080fd5b50610d3e61268e565b005b348015610d4c57600080fd5b50610d556127d9565b6040518080602001828103825283818151815260200191508051906020019080838360005b83811015610d95578082015181840152602081019050610d7a565b50505050905090810190601f168015610dc25780820380516001836020036101000a031916815260200191505b509250505060405180910390f35b348015610ddc57600080fd5b50610e31600480360381019080803573ffffffffffffffffffffffffffffffffffffffff169060200190929190803573ffffffffffffffffffffffffffffffffffffffff169060200190929190505050612877565b005b348015610e3f57600080fd5b50610e48612a1a565b005b348015610e5657600080fd5b50610e5f612b3e565b60405180861515151581526020018060200185600b811115610e7d57fe5b60ff16815260200184815260200180602001838103835287818151815260200191508051906020019080838360005b83811015610ec7578082015181840152602081019050610eac565b50505050905090810190601f168015610ef45780820380516001836020036101000a031916815260200191505b50838103825284818151815260200191508051906020019060200280838360005b83811015610f30578082015181840152602081019050610f15565b5050505090500197505050505050505060405180910390f35b348015610f5557600080fd5b50610f5e612c88565b6040518080602001828103825283818151815260200191508051906020019080838360005b83811015610f9e578082015181840152602081019050610f83565b50505050905090810190601f168015610fcb5780820380516001836020036101000a031916815260200191505b509250505060405180910390f35b348015610fe557600080fd5b50611040600480360381019080803590602001908201803590602001908080601f0160208091040260200160405190810160405280939291908181526020018383808284378201915050505050509192919290505050612d26565b005b34801561104e57600080fd5b50611057612e5e565b6040518082600b81111561106757fe5b60ff16815260200191505060405180910390f35b34801561108757600080fd5b506110e2600480360381019080803590602001908201803590602001908080601f0160208091040260200160405190810160405280939291908181526020018383808284378201915050505050509192919290505050612e71565b005b3480156110f057600080fd5b506110f9612fa9565b604051808273ffffffffffffffffffffffffffffffffffffffff1673ffffffffffffffffffffffffffffffffffffffff16815260200191505060405180910390f35b34801561114757600080fd5b50611150612fcf565b604051808273ffffffffffffffffffffffffffffffffffffffff1673ffffffffffffffffffffffffffffffffffffffff16815260200191505060405180910390f35b34801561119e57600080fd5b506111a7612ff5565b604051808273ffffffffffffffffffffffffffffffffffffffff1673ffffffffffffffffffffffffffffffffffffffff16815260200191505060405180910390f35b6003600b8111156111f657fe5b600560009054906101000a900460ff16600b81111561121157fe5b14156112c857600560019054906101000a900473ffffffffffffffffffffffffffffffffffffffff1673ffffffffffffffffffffffffffffffffffffffff163373ffffffffffffffffffffffffffffffffffffffff1614151561127357600080fd5b6002600560006101000a81548160ff0219169083600b81111561129257fe5b021790555060024290806001815401808255809150509060018203906000526020600020016000909192909190915055506112cd565b600080fd5b61130b6040805190810160405280601181526020017f416d656e6442696c6c4f664c6164696e6700000000000000000000000000000081525061301b565b565b600b8054600181600116156101000203166002900480601f0160208091040260200160405190810160405280929190818152602001828054600181600116156101000203166002900480156113a35780601f10611378576101008083540402835291602001916113a3565b820191906000526020600020905b81548152906001019060200180831161138657829003601f168201915b505050505081565b6009600b8111156113b857fe5b600560009054906101000a900460ff16600b8111156113d357fe5b141561148a57600a60009054906101000a900473ffffffffffffffffffffffffffffffffffffffff1673ffffffffffffffffffffffffffffffffffffffff163373ffffffffffffffffffffffffffffffffffffffff1614151561143557600080fd5b600a600560006101000a81548160ff0219169083600b81111561145457fe5b0217905550600242908060018154018082558091505090600182039060005260206000200160009091929091909150555061148f565b600080fd5b6114cd6040805190810160405280600f81526020017f417070726f766544656c6976657279000000000000000000000000000000000081525061301b565b565b600360009054906101000a900460ff1681565b60108054600181600116156101000203166002900480601f0160208091040260200160405190810160405280929190818152602001828054600181600116156101000203166002900480156115785780601f1061154d57610100808354040283529160200191611578565b820191906000526020600020905b81548152906001019060200180831161155b57829003601f168201915b505050505081565b6000600b81111561158d57fe5b600560009054906101000a900460ff16600b8111156115a857fe5b1415156115b457600080fd5b600360019054906101000a900473ffffffffffffffffffffffffffffffffffffffff1673ffffffffffffffffffffffffffffffffffffffff163373ffffffffffffffffffffffffffffffffffffffff1614151561161057600080fd5b84600b9080519060200190611626929190613204565b5083600c908051906020019061163d929190613204565b5082600d9080519060200190611654929190613204565b5081600e908051906020019061166b929190613204565b5080600f9080519060200190611682929190613204565b506001600560006101000a81548160ff0219169083600b8111156116a257fe5b021790555060024290806001815401808255809150509060018203906000526020600020016000909192909190915055506117116040805190810160405280600f81526020017f4578706f7274436c656172616e6365000000000000000000000000000000000081525061301b565b5050505050565b6006600b81111561172557fe5b600560009054906101000a900460ff16600b81111561174057fe5b14156117f657600960009054906101000a900473ffffffffffffffffffffffffffffffffffffffff1673ffffffffffffffffffffffffffffffffffffffff163373ffffffffffffffffffffffffffffffffffffffff161415156117a257600080fd5b60058060006101000a81548160ff0219169083600b8111156117c057fe5b021790555060024290806001815401808255809150509060018203906000526020600020016000909192909190915055506117fb565b600080fd5b6118396040805190810160405280601481526020017f416d656e64496d706f7274446f63756d656e747300000000000000000000000081525061301b565b565b6001600b81111561184857fe5b600560009054906101000a900460ff16600b81111561186357fe5b141561191a57600660009054906101000a900473ffffffffffffffffffffffffffffffffffffffff1673ffffffffffffffffffffffffffffffffffffffff163373ffffffffffffffffffffffffffffffffffffffff161415156118c557600080fd5b6002600560006101000a81548160ff0219169083600b8111156118e457fe5b0217905550600242908060018154018082558091505090600182039060005260206000200160009091929091909150555061191f565b600080fd5b61195d6040805190810160405280601a81526020017f417070726f76654578706f7274446f63756d656e746174696f6e00000000000081525061301b565b565b6002600b81111561196c57fe5b600560009054906101000a900460ff16600b81111561198757fe5b14151561199357600080fd5b600360019054906101000a900473ffffffffffffffffffffffffffffffffffffffff1673ffffffffffffffffffffffffffffffffffffffff163373ffffffffffffffffffffffffffffffffffffffff161415156119ef57600080fd5b8160109080519060200190611a05929190613204565b508060119080519060200190611a1c929190613204565b506003600560006101000a81548160ff0219169083600b811115611a3c57fe5b02179055506002429080600181540180825580915050906001820390600052602060002001600090919290919091505550611aab6040805190810160405280601781526020017f55706c6f61645368697070696e67446f63756d656e747300000000000000000081525061301b565b5050565b6005600b811115611abc57fe5b600560009054906101000a900460ff16600b811115611ad757fe5b141515611ae357600080fd5b600860009054906101000a900473ffffffffffffffffffffffffffffffffffffffff1673ffffffffffffffffffffffffffffffffffffffff163373ffffffffffffffffffffffffffffffffffffffff16141515611b3f57600080fd5b80600760006101000a81548173ffffffffffffffffffffffffffffffffffffffff021916908373ffffffffffffffffffffffffffffffffffffffff1602179055506006600560006101000a81548160ff0219169083600b811115611b9f57fe5b02179055506002429080600181540180825580915050906001820390600052602060002001600090919290919091505550611c0e6040805190810160405280601981526020017f53656e6442696c6c4f664c6164696e67546f437573746f6d730000000000000081525061301b565b50565b600b80811115611c1d57fe5b600560009054906101000a900460ff16600b811115611c3857fe5b1480611c695750600a600b811115611c4c57fe5b600560009054906101000a900460ff16600b811115611c6757fe5b145b1515611c7457600080fd5b600360019054906101000a900473ffffffffffffffffffffffffffffffffffffffff1673ffffffffffffffffffffffffffffffffffffffff163373ffffffffffffffffffffffffffffffffffffffff16141515611cd057600080fd5b600360009054906101000a900460ff16151515611cec57600080fd5b6001600360006101000a81548160ff021916908315150217905550600360019054906101000a900473ffffffffffffffffffffffffffffffffffffffff1673ffffffffffffffffffffffffffffffffffffffff16ff5b60118054600181600116156101000203166002900480601f016020809104026020016040519081016040528092919081815260200182805460018160011615610100020316600290048015611dd85780601f10611dad57610100808354040283529160200191611dd8565b820191906000526020600020905b815481529060010190602001808311611dbb57829003601f168201915b505050505081565b6003600b811115611ded57fe5b600560009054906101000a900460ff16600b811115611e0857fe5b141515611e1457600080fd5b600560019054906101000a900473ffffffffffffffffffffffffffffffffffffffff1673ffffffffffffffffffffffffffffffffffffffff163373ffffffffffffffffffffffffffffffffffffffff16141515611e7057600080fd5b8060129080519060200190611e86929190613204565b506004600560006101000a81548160ff0219169083600b811115611ea657fe5b02179055506002429080600181540180825580915050906001820390600052602060002001600090919290919091505550611f156040805190810160405280601781526020017f55706c6f616446696e616c42696c6c4f664c6164696e6700000000000000000081525061301b565b50565b600e8054600181600116156101000203166002900480601f016020809104026020016040519081016040528092919081815260200182805460018160011615610100020316600290048015611fae5780601f10611f8357610100808354040283529160200191611fae565b820191906000526020600020905b815481529060010190602001808311611f9157829003601f168201915b505050505081565b60138054600181600116156101000203166002900480601f01602080910402602001604051908101604052809291908181526020018280546001816001161561010002031660029004801561204c5780601f106120215761010080835404028352916020019161204c565b820191906000526020600020905b81548152906001019060200180831161202f57829003601f168201915b505050505081565b60128054600181600116156101000203166002900480601f0160208091040260200160405190810160405280929190818152602001828054600181600116156101000203166002900480156120ea5780601f106120bf576101008083540402835291602001916120ea565b820191906000526020600020905b8154815290600101906020018083116120cd57829003601f168201915b505050505081565b600f8054600181600116156101000203166002900480601f0160208091040260200160405190810160405280929190818152602001828054600181600116156101000203166002900480156121885780601f1061215d57610100808354040283529160200191612188565b820191906000526020600020905b81548152906001019060200180831161216b57829003601f168201915b505050505081565b600080600080600080600660009054906101000a900473ffffffffffffffffffffffffffffffffffffffff16600560019054906101000a900473ffffffffffffffffffffffffffffffffffffffff16600960009054906101000a900473ffffffffffffffffffffffffffffffffffffffff16600860009054906101000a900473ffffffffffffffffffffffffffffffffffffffff16600760009054906101000a900473ffffffffffffffffffffffffffffffffffffffff16600a60009054906101000a900473ffffffffffffffffffffffffffffffffffffffff16955095509550955095509550909192939495565b60048054600181600116156101000203166002900480601f0160208091040260200160405190810160405280929190818152602001828054600181600116156101000203166002900480156123155780601f106122ea57610100808354040283529160200191612315565b820191906000526020600020905b8154815290600101906020018083116122f857829003601f168201915b505050505081565b600860009054906101000a900473ffffffffffffffffffffffffffffffffffffffff1681565b600a60009054906101000a900473ffffffffffffffffffffffffffffffffffffffff1681565b600760009054906101000a900473ffffffffffffffffffffffffffffffffffffffff1681565b6001600b81111561239c57fe5b600560009054906101000a900460ff16600b8111156123b757fe5b141561241e57600660009054906101000a900473ffffffffffffffffffffffffffffffffffffffff1673ffffffffffffffffffffffffffffffffffffffff163373ffffffffffffffffffffffffffffffffffffffff1614151561241957600080fd5b61253a565b6006600b81111561242b57fe5b600560009054906101000a900460ff16600b81111561244657fe5b14156124ad57600960009054906101000a900473ffffffffffffffffffffffffffffffffffffffff1673ffffffffffffffffffffffffffffffffffffffff163373ffffffffffffffffffffffffffffffffffffffff161415156124a857600080fd5b612539565b6009600b8111156124ba57fe5b600560009054906101000a900460ff16600b8111156124d557fe5b141561253857600a60009054906101000a900473ffffffffffffffffffffffffffffffffffffffff1673ffffffffffffffffffffffffffffffffffffffff163373ffffffffffffffffffffffffffffffffffffffff1614151561253757600080fd5b5b5b5b600b600560006101000a81548160ff0219169083600b81111561255957fe5b021790555060024290806001815401808255809150509060018203906000526020600020016000909192909190915055506125c86040805190810160405280600981526020017f5465726d696e617465000000000000000000000000000000000000000000000081525061301b565b565b600560019054906101000a900473ffffffffffffffffffffffffffffffffffffffff1681565b600c8054600181600116156101000203166002900480601f0160208091040260200160405190810160405280929190818152602001828054600181600116156101000203166002900480156126865780601f1061265b57610100808354040283529160200191612686565b820191906000526020600020905b81548152906001019060200180831161266957829003601f168201915b505050505081565b6008600b81111561269b57fe5b600560009054906101000a900460ff16600b8111156126b657fe5b141561276d57600760009054906101000a900473ffffffffffffffffffffffffffffffffffffffff1673ffffffffffffffffffffffffffffffffffffffff163373ffffffffffffffffffffffffffffffffffffffff1614151561271857600080fd5b6009600560006101000a81548160ff0219169083600b81111561273757fe5b02179055506002429080600181540180825580915050906001820390600052602060002001600090919290919091505550612772565b600080fd5b6127d7606060405190810160405280602681526020017f53656e6444656c69766572794f72646572466f72436f6e7369676e656553696781526020017f6e6174757265000000000000000000000000000000000000000000000000000081525061301b565b565b60148054600181600116156101000203166002900480601f01602080910402602001604051908101604052809291908181526020018280546001816001161561010002031660029004801561286f5780601f106128445761010080835404028352916020019161286f565b820191906000526020600020905b81548152906001019060200180831161285257829003601f168201915b505050505081565b6004600b81111561288457fe5b600560009054906101000a900460ff16600b81111561289f57fe5b1415156128ab57600080fd5b600360019054906101000a900473ffffffffffffffffffffffffffffffffffffffff1673ffffffffffffffffffffffffffffffffffffffff163373ffffffffffffffffffffffffffffffffffffffff1614151561290757600080fd5b81600860006101000a81548173ffffffffffffffffffffffffffffffffffffffff021916908373ffffffffffffffffffffffffffffffffffffffff16021790555080600960006101000a81548173ffffffffffffffffffffffffffffffffffffffff021916908373ffffffffffffffffffffffffffffffffffffffff16021790555060058060006101000a81548160ff0219169083600b8111156129a757fe5b02179055506002429080600181540180825580915050906001820390600052602060002001600090919290919091505550612a166040805190810160405280601481526020017f5472616e7366657242696c6c4f664c6164696e6700000000000000000000000081525061301b565b5050565b6001600b811115612a2757fe5b600560009054906101000a900460ff16600b811115612a4257fe5b1415612af957600660009054906101000a900473ffffffffffffffffffffffffffffffffffffffff1673ffffffffffffffffffffffffffffffffffffffff163373ffffffffffffffffffffffffffffffffffffffff16141515612aa457600080fd5b6000600560006101000a81548160ff0219169083600b811115612ac357fe5b02179055506002429080600181540180825580915050906001820390600052602060002001600090919290919091505550612afe565b600080fd5b612b3c6040805190810160405280601881526020017f416d656e644578706f7274446f63756d656e746174696f6e000000000000000081525061301b565b565b600060606000806060600360009054906101000a900460ff16945060048054600181600116156101000203166002900480601f016020809104026020016040519081016040528092919081815260200182805460018160011615610100020316600290048015612bef5780601f10612bc457610100808354040283529160200191612bef565b820191906000526020600020905b815481529060010190602001808311612bd257829003601f168201915b50505050509350600560009054906101000a900460ff1692506002600160028054905003815481101515612c1f57fe5b9060005260206000200154420391506002805480602002602001604051908101604052809291908181526020018280548015612c7a57602002820191906000526020600020905b815481526020019060010190808311612c66575b505050505090509091929394565b600d8054600181600116156101000203166002900480601f016020809104026020016040519081016040528092919081815260200182805460018160011615610100020316600290048015612d1e5780601f10612cf357610100808354040283529160200191612d1e565b820191906000526020600020905b815481529060010190602001808311612d0157829003601f168201915b505050505081565b6006600b811115612d3357fe5b600560009054906101000a900460ff16600b811115612d4e57fe5b141515612d5a57600080fd5b600960009054906101000a900473ffffffffffffffffffffffffffffffffffffffff1673ffffffffffffffffffffffffffffffffffffffff163373ffffffffffffffffffffffffffffffffffffffff16141515612db657600080fd5b8060139080519060200190612dcc929190613204565b506007600560006101000a81548160ff0219169083600b811115612dec57fe5b02179055506002429080600181540180825580915050906001820390600052602060002001600090919290919091505550612e5b6040805190810160405280601081526020017f53656e6452656c656173654f726465720000000000000000000000000000000081525061301b565b50565b600560009054906101000a900460ff1681565b6007600b811115612e7e57fe5b600560009054906101000a900460ff16600b811115612e9957fe5b141515612ea557600080fd5b600860009054906101000a900473ffffffffffffffffffffffffffffffffffffffff1673ffffffffffffffffffffffffffffffffffffffff163373ffffffffffffffffffffffffffffffffffffffff16141515612f0157600080fd5b8060149080519060200190612f17929190613204565b506008600560006101000a81548160ff0219169083600b811115612f3757fe5b02179055506002429080600181540180825580915050906001820390600052602060002001600090919290919091505550612fa66040805190810160405280601181526020017f53656e6444656c69766572794f7264657200000000000000000000000000000081525061301b565b50565b600660009054906101000a900473ffffffffffffffffffffffffffffffffffffffff1681565b600960009054906101000a900473ffffffffffffffffffffffffffffffffffffffff1681565b600360019054906101000a900473ffffffffffffffffffffffffffffffffffffffff1681565b7fa13bd79f323c399d36191e886ded389c940ccd7e6dd744d1505943592fb2b433600060018333604051808060200180602001806020018573ffffffffffffffffffffffffffffffffffffffff1673ffffffffffffffffffffffffffffffffffffffff1681526020018481038452888181546001816001161561010002031660029004815260200191508054600181600116156101000203166002900480156131055780601f106130da57610100808354040283529160200191613105565b820191906000526020600020905b8154815290600101906020018083116130e857829003601f168201915b50508481038352878181546001816001161561010002031660029004815260200191508054600181600116156101000203166002900480156131885780601f1061315d57610100808354040283529160200191613188565b820191906000526020600020905b81548152906001019060200180831161316b57829003601f168201915b5050848103825286818151815260200191508051906020019080838360005b838110156131c25780820151818401526020810190506131a7565b50505050905090810190601f1680156131ef5780820380516001836020036101000a031916815260200191505b5097505050505050505060405180910390a150565b828054600181600116156101000203166002900490600052602060002090601f016020900481019282601f1061324557805160ff1916838001178555613273565b82800160010185558215613273579182015b82811115613272578251825591602001919060010190613257565b5b5090506132809190613284565b5090565b6132a691905b808211156132a257600081600090555060010161328a565b5090565b905600a165627a7a723058201ed7307525bfdcb14935646fa9725a59fd60c46cbfc382735e7584d15eede8dd0029a165627a7a7230582088ca9c9830e87b6f3b5bc7b60f4c5f550cab715818bf19f9b0d7dffe7ab0431d0029",
  "source": "pragma solidity ^0.4.24;\n\nimport \"./SupplyChainTransportation.sol\";\n\ncontract SupplychainFactory{\n    address[] public deployedSupplychains;\n    \n    function createSupplyChain(string description, address freightCarrier, address originCustoms, address consignee) public returns (address newSupplychain){\n        newSupplychain = new SupplyChainTransportation(msg.sender, description, freightCarrier, originCustoms, consignee);\n        deployedSupplychains.push(newSupplychain);\n    }\n    \n    function getDeployedSupplyChain() public view returns(address[]){\n        return deployedSupplychains;\n    }\n}",
  "sourcePath": "/media/pyofey/DATA/Coding/Web/2018_10_29_azure_truffle/contracts/SupplychainFactory.sol",
  "compiler": {
    "name": "solc",
    "version": "0.4.24+commit.e67f0147.Emscripten.clang"
  },
  "schemaVersion": "3.0.6",
  "updatedAt": "2019-05-26T19:09:08.404Z",
  "devdoc": {
    "methods": {}
  },
  "userdoc": {
    "methods": {}
  }
}