{
  "contractName": "SupplyChainTransportation",
  "abi": [
    {
      "constant": true,
      "inputs": [],
      "name": "Seller",
      "outputs": [
        {
          "name": "",
          "type": "string"
        }
      ],
      "payable": false,
      "stateMutability": "view",
      "type": "function"
    },
    {
      "constant": true,
      "inputs": [],
      "name": "ShippingDocuments",
      "outputs": [
        {
          "name": "",
          "type": "string"
        }
      ],
      "payable": false,
      "stateMutability": "view",
      "type": "function"
    },
    {
      "constant": true,
      "inputs": [],
      "name": "DraftBillOfLadingDocument",
      "outputs": [
        {
          "name": "",
          "type": "string"
        }
      ],
      "payable": false,
      "stateMutability": "view",
      "type": "function"
    },
    {
      "constant": true,
      "inputs": [],
      "name": "ExportDocument",
      "outputs": [
        {
          "name": "",
          "type": "string"
        }
      ],
      "payable": false,
      "stateMutability": "view",
      "type": "function"
    },
    {
      "constant": true,
      "inputs": [],
      "name": "ReleaseOrderDocument",
      "outputs": [
        {
          "name": "",
          "type": "string"
        }
      ],
      "payable": false,
      "stateMutability": "view",
      "type": "function"
    },
    {
      "constant": true,
      "inputs": [],
      "name": "FinalBillOfLadingDocument",
      "outputs": [
        {
          "name": "",
          "type": "string"
        }
      ],
      "payable": false,
      "stateMutability": "view",
      "type": "function"
    },
    {
      "constant": true,
      "inputs": [],
      "name": "CustomsDocument",
      "outputs": [
        {
          "name": "",
          "type": "string"
        }
      ],
      "payable": false,
      "stateMutability": "view",
      "type": "function"
    },
    {
      "constant": true,
      "inputs": [],
      "name": "Description",
      "outputs": [
        {
          "name": "",
          "type": "string"
        }
      ],
      "payable": false,
      "stateMutability": "view",
      "type": "function"
    },
    {
      "constant": true,
      "inputs": [],
      "name": "InstanceDestinationCustomsBroker",
      "outputs": [
        {
          "name": "",
          "type": "address"
        }
      ],
      "payable": false,
      "stateMutability": "view",
      "type": "function"
    },
    {
      "constant": true,
      "inputs": [],
      "name": "InstanceConsignee",
      "outputs": [
        {
          "name": "",
          "type": "address"
        }
      ],
      "payable": false,
      "stateMutability": "view",
      "type": "function"
    },
    {
      "constant": true,
      "inputs": [],
      "name": "InstanceDrayageAgent",
      "outputs": [
        {
          "name": "",
          "type": "address"
        }
      ],
      "payable": false,
      "stateMutability": "view",
      "type": "function"
    },
    {
      "constant": true,
      "inputs": [],
      "name": "InstanceFreightCarrier",
      "outputs": [
        {
          "name": "",
          "type": "address"
        }
      ],
      "payable": false,
      "stateMutability": "view",
      "type": "function"
    },
    {
      "constant": true,
      "inputs": [],
      "name": "PortOfDischarge",
      "outputs": [
        {
          "name": "",
          "type": "string"
        }
      ],
      "payable": false,
      "stateMutability": "view",
      "type": "function"
    },
    {
      "constant": true,
      "inputs": [],
      "name": "DeliveryOrderDocument",
      "outputs": [
        {
          "name": "",
          "type": "string"
        }
      ],
      "payable": false,
      "stateMutability": "view",
      "type": "function"
    },
    {
      "constant": true,
      "inputs": [],
      "name": "OriginBank",
      "outputs": [
        {
          "name": "",
          "type": "string"
        }
      ],
      "payable": false,
      "stateMutability": "view",
      "type": "function"
    },
    {
      "constant": true,
      "inputs": [],
      "name": "State",
      "outputs": [
        {
          "name": "",
          "type": "uint8"
        }
      ],
      "payable": false,
      "stateMutability": "view",
      "type": "function"
    },
    {
      "constant": true,
      "inputs": [],
      "name": "InstanceOriginCustoms",
      "outputs": [
        {
          "name": "",
          "type": "address"
        }
      ],
      "payable": false,
      "stateMutability": "view",
      "type": "function"
    },
    {
      "constant": true,
      "inputs": [],
      "name": "InstanceDestinationCustoms",
      "outputs": [
        {
          "name": "",
          "type": "address"
        }
      ],
      "payable": false,
      "stateMutability": "view",
      "type": "function"
    },
    {
      "constant": true,
      "inputs": [],
      "name": "InstanceShipper",
      "outputs": [
        {
          "name": "",
          "type": "address"
        }
      ],
      "payable": false,
      "stateMutability": "view",
      "type": "function"
    },
    {
      "inputs": [
        {
          "name": "creator",
          "type": "address"
        },
        {
          "name": "description",
          "type": "string"
        },
        {
          "name": "freightCarrier",
          "type": "address"
        },
        {
          "name": "originCustoms",
          "type": "address"
        },
        {
          "name": "consignee",
          "type": "address"
        }
      ],
      "payable": false,
      "stateMutability": "nonpayable",
      "type": "constructor"
    },
    {
      "anonymous": false,
      "inputs": [
        {
          "indexed": false,
          "name": "applicationName",
          "type": "string"
        },
        {
          "indexed": false,
          "name": "workflowName",
          "type": "string"
        },
        {
          "indexed": false,
          "name": "originatingAddress",
          "type": "address"
        }
      ],
      "name": "WorkbenchContractCreated",
      "type": "event"
    },
    {
      "anonymous": false,
      "inputs": [
        {
          "indexed": false,
          "name": "applicationName",
          "type": "string"
        },
        {
          "indexed": false,
          "name": "workflowName",
          "type": "string"
        },
        {
          "indexed": false,
          "name": "action",
          "type": "string"
        },
        {
          "indexed": false,
          "name": "originatingAddress",
          "type": "address"
        }
      ],
      "name": "WorkbenchContractUpdated",
      "type": "event"
    },
    {
      "constant": false,
      "inputs": [],
      "name": "Terminate",
      "outputs": [],
      "payable": false,
      "stateMutability": "nonpayable",
      "type": "function"
    },
    {
      "constant": false,
      "inputs": [],
      "name": "ApproveExportDocumentation",
      "outputs": [],
      "payable": false,
      "stateMutability": "nonpayable",
      "type": "function"
    },
    {
      "constant": false,
      "inputs": [],
      "name": "SendDeliveryOrderForConsigneeSignature",
      "outputs": [],
      "payable": false,
      "stateMutability": "nonpayable",
      "type": "function"
    },
    {
      "constant": false,
      "inputs": [],
      "name": "ApproveDelivery",
      "outputs": [],
      "payable": false,
      "stateMutability": "nonpayable",
      "type": "function"
    },
    {
      "constant": false,
      "inputs": [],
      "name": "AmendExportDocumentation",
      "outputs": [],
      "payable": false,
      "stateMutability": "nonpayable",
      "type": "function"
    },
    {
      "constant": false,
      "inputs": [],
      "name": "AmendBillOfLading",
      "outputs": [],
      "payable": false,
      "stateMutability": "nonpayable",
      "type": "function"
    },
    {
      "constant": false,
      "inputs": [],
      "name": "AmendImportDocuments",
      "outputs": [],
      "payable": false,
      "stateMutability": "nonpayable",
      "type": "function"
    },
    {
      "constant": false,
      "inputs": [
        {
          "name": "seller",
          "type": "string"
        },
        {
          "name": "portOfDischarge",
          "type": "string"
        },
        {
          "name": "originBank",
          "type": "string"
        },
        {
          "name": "exportDocument",
          "type": "string"
        },
        {
          "name": "customsDocument",
          "type": "string"
        }
      ],
      "name": "ExportClearance",
      "outputs": [],
      "payable": false,
      "stateMutability": "nonpayable",
      "type": "function"
    },
    {
      "constant": false,
      "inputs": [
        {
          "name": "shippingDocuments",
          "type": "string"
        },
        {
          "name": "draftBillOfLadingDocument",
          "type": "string"
        }
      ],
      "name": "UploadShippingDocuments",
      "outputs": [],
      "payable": false,
      "stateMutability": "nonpayable",
      "type": "function"
    },
    {
      "constant": false,
      "inputs": [
        {
          "name": "finalBillOfLadingDocument",
          "type": "string"
        }
      ],
      "name": "UploadFinalBillOfLading",
      "outputs": [],
      "payable": false,
      "stateMutability": "nonpayable",
      "type": "function"
    },
    {
      "constant": false,
      "inputs": [
        {
          "name": "destinationCustomsBroker",
          "type": "address"
        },
        {
          "name": "destinationCustoms",
          "type": "address"
        }
      ],
      "name": "TransferBillOfLading",
      "outputs": [],
      "payable": false,
      "stateMutability": "nonpayable",
      "type": "function"
    },
    {
      "constant": false,
      "inputs": [
        {
          "name": "drayageAgent",
          "type": "address"
        }
      ],
      "name": "SendBillOfLadingToCustoms",
      "outputs": [],
      "payable": false,
      "stateMutability": "nonpayable",
      "type": "function"
    },
    {
      "constant": false,
      "inputs": [
        {
          "name": "releaseOrderDocument",
          "type": "string"
        }
      ],
      "name": "SendReleaseOrder",
      "outputs": [],
      "payable": false,
      "stateMutability": "nonpayable",
      "type": "function"
    },
    {
      "constant": false,
      "inputs": [
        {
          "name": "deliveryOrderDocument",
          "type": "string"
        }
      ],
      "name": "SendDeliveryOrder",
      "outputs": [],
      "payable": false,
      "stateMutability": "nonpayable",
      "type": "function"
    }
  ],
  "bytecode": "0x60806040523480156200001157600080fd5b5060405162002ed338038062002ed383398101806040528101908080519060200190929190805182019291906020018051906020019092919080519060200190929190805190602001909291905050506040805190810160405280601981526020017f537570706c79436861696e5472616e73706f72746174696f6e000000000000008152506040805190810160405280601981526020017f537570706c79436861696e5472616e73706f72746174696f6e000000000000008152508160009080519060200190620000e5929190620003ea565b508060019080519060200190620000fe929190620003ea565b50505084600260006101000a81548173ffffffffffffffffffffffffffffffffffffffff021916908373ffffffffffffffffffffffffffffffffffffffff16021790555083600390805190602001906200015a929190620003ea565b506000600460006101000a81548160ff0219169083600b8111156200017b57fe5b021790555082600660006101000a81548173ffffffffffffffffffffffffffffffffffffffff021916908373ffffffffffffffffffffffffffffffffffffffff16021790555081600760006101000a81548173ffffffffffffffffffffffffffffffffffffffff021916908373ffffffffffffffffffffffffffffffffffffffff16021790555080600b60006101000a81548173ffffffffffffffffffffffffffffffffffffffff021916908373ffffffffffffffffffffffffffffffffffffffff1602179055506200025c62000267640100000000026401000000009004565b505050505062000499565b7f5164ff06e10737dceb282871701b28082988339e79ba9d49c6c9b0e00312982b60006001336040518080602001806020018473ffffffffffffffffffffffffffffffffffffffff1673ffffffffffffffffffffffffffffffffffffffff168152602001838103835286818154600181600116156101000203166002900481526020019150805460018160011615610100020316600290048015620003505780601f10620003245761010080835404028352916020019162000350565b820191906000526020600020905b8154815290600101906020018083116200033257829003601f168201915b5050838103825285818154600181600116156101000203166002900481526020019150805460018160011615610100020316600290048015620003d75780601f10620003ab57610100808354040283529160200191620003d7565b820191906000526020600020905b815481529060010190602001808311620003b957829003601f168201915b50509550505050505060405180910390a1565b828054600181600116156101000203166002900490600052602060002090601f016020900481019282601f106200042d57805160ff19168380011785556200045e565b828001600101855582156200045e579182015b828111156200045d57825182559160200191906001019062000440565b5b5090506200046d919062000471565b5090565b6200049691905b808211156200049257600081600090555060010162000478565b5090565b90565b612a2a80620004a96000396000f3006080604052600436106101a1576000357c0100000000000000000000000000000000000000000000000000000000900463ffffffff16806304c0a755146101a657806307fd3687146101bd5780630838d2751461024d578063121e49cd14610264578063131f00e9146102f457806313ec404814610475578063387ac7911461048c5780633b2e3c9c146104a35780633be68526146105525780634538d82714610595578063495896191461062557806351f692851461068e5780635f6d15771461071e578063657f3b85146107ae5780636d5962021461083e5780638191745f146108ce57806385090ac71461095e57806389ffce52146109b5578063911ee4a314610a0c5780639445eb3a14610a635780639d98449b14610a7a578063a7585d2614610ad1578063aedc2aa214610b61578063b2b4a2d714610b78578063b7f5ccb914610c08578063b866519414610c6b578063da2939fb14610c82578063da955c6514610d12578063f1b6dccd14610d7b578063f34d64f814610db4578063f5ec14cb14610e1d578063f6c96e2d14610e74578063feeeeac014610ecb575b600080fd5b3480156101b257600080fd5b506101bb610f22565b005b3480156101c957600080fd5b506101d261101a565b6040518080602001828103825283818151815260200191508051906020019080838360005b838110156102125780820151818401526020810190506101f7565b50505050905090810190601f16801561023f5780820380516001836020036101000a031916815260200191505b509250505060405180910390f35b34801561025957600080fd5b506102626110b8565b005b34801561027057600080fd5b506102796111b0565b6040518080602001828103825283818151815260200191508051906020019080838360005b838110156102b957808201518184015260208101905061029e565b50505050905090810190601f1680156102e65780820380516001836020036101000a031916815260200191505b509250505060405180910390f35b34801561030057600080fd5b50610473600480360381019080803590602001908201803590602001908080601f0160208091040260200160405190810160405280939291908181526020018383808284378201915050505050509192919290803590602001908201803590602001908080601f0160208091040260200160405190810160405280939291908181526020018383808284378201915050505050509192919290803590602001908201803590602001908080601f0160208091040260200160405190810160405280939291908181526020018383808284378201915050505050509192919290803590602001908201803590602001908080601f0160208091040260200160405190810160405280939291908181526020018383808284378201915050505050509192919290803590602001908201803590602001908080601f016020809104026020016040519081016040528093929190818152602001838380828437820191505050505050919291929050505061124e565b005b34801561048157600080fd5b5061048a6113ba565b005b34801561049857600080fd5b506104a16114b2565b005b3480156104af57600080fd5b50610550600480360381019080803590602001908201803590602001908080601f0160208091040260200160405190810160405280939291908181526020018383808284378201915050505050509192919290803590602001908201803590602001908080601f01602080910402602001604051908101604052809392919081815260200183838082843782019150505050505091929192905050506115aa565b005b34801561055e57600080fd5b50610593600480360381019080803573ffffffffffffffffffffffffffffffffffffffff1690602001909291905050506116ce565b005b3480156105a157600080fd5b506105aa611804565b6040518080602001828103825283818151815260200191508051906020019080838360005b838110156105ea5780820151818401526020810190506105cf565b50505050905090810190601f1680156106175780820380516001836020036101000a031916815260200191505b509250505060405180910390f35b34801561063157600080fd5b5061068c600480360381019080803590602001908201803590602001908080601f01602080910402602001604051908101604052809392919081815260200183838082843782019150505050505091929192905050506118a2565b005b34801561069a57600080fd5b506106a36119ad565b6040518080602001828103825283818151815260200191508051906020019080838360005b838110156106e35780820151818401526020810190506106c8565b50505050905090810190601f1680156107105780820380516001836020036101000a031916815260200191505b509250505060405180910390f35b34801561072a57600080fd5b50610733611a4b565b6040518080602001828103825283818151815260200191508051906020019080838360005b83811015610773578082015181840152602081019050610758565b50505050905090810190601f1680156107a05780820380516001836020036101000a031916815260200191505b509250505060405180910390f35b3480156107ba57600080fd5b506107c3611ae9565b6040518080602001828103825283818151815260200191508051906020019080838360005b838110156108035780820151818401526020810190506107e8565b50505050905090810190601f1680156108305780820380516001836020036101000a031916815260200191505b509250505060405180910390f35b34801561084a57600080fd5b50610853611b87565b6040518080602001828103825283818151815260200191508051906020019080838360005b83811015610893578082015181840152602081019050610878565b50505050905090810190601f1680156108c05780820380516001836020036101000a031916815260200191505b509250505060405180910390f35b3480156108da57600080fd5b506108e3611c25565b6040518080602001828103825283818151815260200191508051906020019080838360005b83811015610923578082015181840152602081019050610908565b50505050905090810190601f1680156109505780820380516001836020036101000a031916815260200191505b509250505060405180910390f35b34801561096a57600080fd5b50610973611cc3565b604051808273ffffffffffffffffffffffffffffffffffffffff1673ffffffffffffffffffffffffffffffffffffffff16815260200191505060405180910390f35b3480156109c157600080fd5b506109ca611ce9565b604051808273ffffffffffffffffffffffffffffffffffffffff1673ffffffffffffffffffffffffffffffffffffffff16815260200191505060405180910390f35b348015610a1857600080fd5b50610a21611d0f565b604051808273ffffffffffffffffffffffffffffffffffffffff1673ffffffffffffffffffffffffffffffffffffffff16815260200191505060405180910390f35b348015610a6f57600080fd5b50610a78611d35565b005b348015610a8657600080fd5b50610a8f611f44565b604051808273ffffffffffffffffffffffffffffffffffffffff1673ffffffffffffffffffffffffffffffffffffffff16815260200191505060405180910390f35b348015610add57600080fd5b50610ae6611f6a565b6040518080602001828103825283818151815260200191508051906020019080838360005b83811015610b26578082015181840152602081019050610b0b565b50505050905090810190601f168015610b535780820380516001836020036101000a031916815260200191505b509250505060405180910390f35b348015610b6d57600080fd5b50610b76612008565b005b348015610b8457600080fd5b50610b8d612127565b6040518080602001828103825283818151815260200191508051906020019080838360005b83811015610bcd578082015181840152602081019050610bb2565b50505050905090810190601f168015610bfa5780820380516001836020036101000a031916815260200191505b509250505060405180910390f35b348015610c1457600080fd5b50610c69600480360381019080803573ffffffffffffffffffffffffffffffffffffffff169060200190929190803573ffffffffffffffffffffffffffffffffffffffff1690602001909291905050506121c5565b005b348015610c7757600080fd5b50610c8061233d565b005b348015610c8e57600080fd5b50610c97612435565b6040518080602001828103825283818151815260200191508051906020019080838360005b83811015610cd7578082015181840152602081019050610cbc565b50505050905090810190601f168015610d045780820380516001836020036101000a031916815260200191505b509250505060405180910390f35b348015610d1e57600080fd5b50610d79600480360381019080803590602001908201803590602001908080601f01602080910402602001604051908101604052809392919081815260200183838082843782019150505050505091929192905050506124d3565b005b348015610d8757600080fd5b50610d906125df565b6040518082600b811115610da057fe5b60ff16815260200191505060405180910390f35b348015610dc057600080fd5b50610e1b600480360381019080803590602001908201803590602001908080601f01602080910402602001604051908101604052809392919081815260200183838082843782019150505050505091929192905050506125f2565b005b348015610e2957600080fd5b50610e326126fe565b604051808273ffffffffffffffffffffffffffffffffffffffff1673ffffffffffffffffffffffffffffffffffffffff16815260200191505060405180910390f35b348015610e8057600080fd5b50610e89612724565b604051808273ffffffffffffffffffffffffffffffffffffffff1673ffffffffffffffffffffffffffffffffffffffff16815260200191505060405180910390f35b348015610ed757600080fd5b50610ee061274a565b604051808273ffffffffffffffffffffffffffffffffffffffff1673ffffffffffffffffffffffffffffffffffffffff16815260200191505060405180910390f35b6003600b811115610f2f57fe5b600460009054906101000a900460ff16600b811115610f4a57fe5b1415610fd557600660009054906101000a900473ffffffffffffffffffffffffffffffffffffffff1673ffffffffffffffffffffffffffffffffffffffff163373ffffffffffffffffffffffffffffffffffffffff16141515610fac57600080fd5b6002600460006101000a81548160ff0219169083600b811115610fcb57fe5b0217905550610fda565b600080fd5b6110186040805190810160405280601181526020017f416d656e6442696c6c4f664c6164696e67000000000000000000000000000000815250612770565b565b600c8054600181600116156101000203166002900480601f0160208091040260200160405190810160405280929190818152602001828054600181600116156101000203166002900480156110b05780601f10611085576101008083540402835291602001916110b0565b820191906000526020600020905b81548152906001019060200180831161109357829003601f168201915b505050505081565b6009600b8111156110c557fe5b600460009054906101000a900460ff16600b8111156110e057fe5b141561116b57600b60009054906101000a900473ffffffffffffffffffffffffffffffffffffffff1673ffffffffffffffffffffffffffffffffffffffff163373ffffffffffffffffffffffffffffffffffffffff1614151561114257600080fd5b600a600460006101000a81548160ff0219169083600b81111561116157fe5b0217905550611170565b600080fd5b6111ae6040805190810160405280600f81526020017f417070726f766544656c69766572790000000000000000000000000000000000815250612770565b565b60118054600181600116156101000203166002900480601f0160208091040260200160405190810160405280929190818152602001828054600181600116156101000203166002900480156112465780601f1061121b57610100808354040283529160200191611246565b820191906000526020600020905b81548152906001019060200180831161122957829003601f168201915b505050505081565b6000600b81111561125b57fe5b600460009054906101000a900460ff16600b81111561127657fe5b14151561128257600080fd5b600260009054906101000a900473ffffffffffffffffffffffffffffffffffffffff1673ffffffffffffffffffffffffffffffffffffffff163373ffffffffffffffffffffffffffffffffffffffff161415156112de57600080fd5b84600c90805190602001906112f4929190612959565b5083600d908051906020019061130b929190612959565b5082600e9080519060200190611322929190612959565b5081600f9080519060200190611339929190612959565b508060109080519060200190611350929190612959565b506001600460006101000a81548160ff0219169083600b81111561137057fe5b02179055506113b36040805190810160405280600f81526020017f4578706f7274436c656172616e63650000000000000000000000000000000000815250612770565b5050505050565b6006600b8111156113c757fe5b600460009054906101000a900460ff16600b8111156113e257fe5b141561146d57600a60009054906101000a900473ffffffffffffffffffffffffffffffffffffffff1673ffffffffffffffffffffffffffffffffffffffff163373ffffffffffffffffffffffffffffffffffffffff1614151561144457600080fd5b6005600460006101000a81548160ff0219169083600b81111561146357fe5b0217905550611472565b600080fd5b6114b06040805190810160405280601481526020017f416d656e64496d706f7274446f63756d656e7473000000000000000000000000815250612770565b565b6001600b8111156114bf57fe5b600460009054906101000a900460ff16600b8111156114da57fe5b141561156557600760009054906101000a900473ffffffffffffffffffffffffffffffffffffffff1673ffffffffffffffffffffffffffffffffffffffff163373ffffffffffffffffffffffffffffffffffffffff1614151561153c57600080fd5b6002600460006101000a81548160ff0219169083600b81111561155b57fe5b021790555061156a565b600080fd5b6115a86040805190810160405280601a81526020017f417070726f76654578706f7274446f63756d656e746174696f6e000000000000815250612770565b565b6002600b8111156115b757fe5b600460009054906101000a900460ff16600b8111156115d257fe5b1415156115de57600080fd5b600260009054906101000a900473ffffffffffffffffffffffffffffffffffffffff1673ffffffffffffffffffffffffffffffffffffffff163373ffffffffffffffffffffffffffffffffffffffff1614151561163a57600080fd5b8160119080519060200190611650929190612959565b508060129080519060200190611667929190612959565b506003600460006101000a81548160ff0219169083600b81111561168757fe5b02179055506116ca6040805190810160405280601781526020017f55706c6f61645368697070696e67446f63756d656e7473000000000000000000815250612770565b5050565b6005600b8111156116db57fe5b600460009054906101000a900460ff16600b8111156116f657fe5b14151561170257600080fd5b600960009054906101000a900473ffffffffffffffffffffffffffffffffffffffff1673ffffffffffffffffffffffffffffffffffffffff163373ffffffffffffffffffffffffffffffffffffffff1614151561175e57600080fd5b80600860006101000a81548173ffffffffffffffffffffffffffffffffffffffff021916908373ffffffffffffffffffffffffffffffffffffffff1602179055506006600460006101000a81548160ff0219169083600b8111156117be57fe5b02179055506118016040805190810160405280601981526020017f53656e6442696c6c4f664c6164696e67546f437573746f6d7300000000000000815250612770565b50565b60128054600181600116156101000203166002900480601f01602080910402602001604051908101604052809291908181526020018280546001816001161561010002031660029004801561189a5780601f1061186f5761010080835404028352916020019161189a565b820191906000526020600020905b81548152906001019060200180831161187d57829003601f168201915b505050505081565b6003600b8111156118af57fe5b600460009054906101000a900460ff16600b8111156118ca57fe5b1415156118d657600080fd5b600660009054906101000a900473ffffffffffffffffffffffffffffffffffffffff1673ffffffffffffffffffffffffffffffffffffffff163373ffffffffffffffffffffffffffffffffffffffff1614151561193257600080fd5b8060139080519060200190611948929190612959565b5060048060006101000a81548160ff0219169083600b81111561196757fe5b02179055506119aa6040805190810160405280601781526020017f55706c6f616446696e616c42696c6c4f664c6164696e67000000000000000000815250612770565b50565b600f8054600181600116156101000203166002900480601f016020809104026020016040519081016040528092919081815260200182805460018160011615610100020316600290048015611a435780601f10611a1857610100808354040283529160200191611a43565b820191906000526020600020905b815481529060010190602001808311611a2657829003601f168201915b505050505081565b60148054600181600116156101000203166002900480601f016020809104026020016040519081016040528092919081815260200182805460018160011615610100020316600290048015611ae15780601f10611ab657610100808354040283529160200191611ae1565b820191906000526020600020905b815481529060010190602001808311611ac457829003601f168201915b505050505081565b60138054600181600116156101000203166002900480601f016020809104026020016040519081016040528092919081815260200182805460018160011615610100020316600290048015611b7f5780601f10611b5457610100808354040283529160200191611b7f565b820191906000526020600020905b815481529060010190602001808311611b6257829003601f168201915b505050505081565b60108054600181600116156101000203166002900480601f016020809104026020016040519081016040528092919081815260200182805460018160011615610100020316600290048015611c1d5780601f10611bf257610100808354040283529160200191611c1d565b820191906000526020600020905b815481529060010190602001808311611c0057829003601f168201915b505050505081565b60038054600181600116156101000203166002900480601f016020809104026020016040519081016040528092919081815260200182805460018160011615610100020316600290048015611cbb5780601f10611c9057610100808354040283529160200191611cbb565b820191906000526020600020905b815481529060010190602001808311611c9e57829003601f168201915b505050505081565b600960009054906101000a900473ffffffffffffffffffffffffffffffffffffffff1681565b600b60009054906101000a900473ffffffffffffffffffffffffffffffffffffffff1681565b600860009054906101000a900473ffffffffffffffffffffffffffffffffffffffff1681565b6001600b811115611d4257fe5b600460009054906101000a900460ff16600b811115611d5d57fe5b1415611dc457600760009054906101000a900473ffffffffffffffffffffffffffffffffffffffff1673ffffffffffffffffffffffffffffffffffffffff163373ffffffffffffffffffffffffffffffffffffffff16141515611dbf57600080fd5b611ee0565b6006600b811115611dd157fe5b600460009054906101000a900460ff16600b811115611dec57fe5b1415611e5357600a60009054906101000a900473ffffffffffffffffffffffffffffffffffffffff1673ffffffffffffffffffffffffffffffffffffffff163373ffffffffffffffffffffffffffffffffffffffff16141515611e4e57600080fd5b611edf565b6009600b811115611e6057fe5b600460009054906101000a900460ff16600b811115611e7b57fe5b1415611ede57600b60009054906101000a900473ffffffffffffffffffffffffffffffffffffffff1673ffffffffffffffffffffffffffffffffffffffff163373ffffffffffffffffffffffffffffffffffffffff16141515611edd57600080fd5b5b5b5b600b600460006101000a81548160ff0219169083600b811115611eff57fe5b0217905550611f426040805190810160405280600981526020017f5465726d696e6174650000000000000000000000000000000000000000000000815250612770565b565b600660009054906101000a900473ffffffffffffffffffffffffffffffffffffffff1681565b600d8054600181600116156101000203166002900480601f0160208091040260200160405190810160405280929190818152602001828054600181600116156101000203166002900480156120005780601f10611fd557610100808354040283529160200191612000565b820191906000526020600020905b815481529060010190602001808311611fe357829003601f168201915b505050505081565b6008600b81111561201557fe5b600460009054906101000a900460ff16600b81111561203057fe5b14156120bb57600860009054906101000a900473ffffffffffffffffffffffffffffffffffffffff1673ffffffffffffffffffffffffffffffffffffffff163373ffffffffffffffffffffffffffffffffffffffff1614151561209257600080fd5b6009600460006101000a81548160ff0219169083600b8111156120b157fe5b02179055506120c0565b600080fd5b612125606060405190810160405280602681526020017f53656e6444656c69766572794f72646572466f72436f6e7369676e656553696781526020017f6e61747572650000000000000000000000000000000000000000000000000000815250612770565b565b60158054600181600116156101000203166002900480601f0160208091040260200160405190810160405280929190818152602001828054600181600116156101000203166002900480156121bd5780601f10612192576101008083540402835291602001916121bd565b820191906000526020600020905b8154815290600101906020018083116121a057829003601f168201915b505050505081565b6004600b8111156121d257fe5b600460009054906101000a900460ff16600b8111156121ed57fe5b1415156121f957600080fd5b600260009054906101000a900473ffffffffffffffffffffffffffffffffffffffff1673ffffffffffffffffffffffffffffffffffffffff163373ffffffffffffffffffffffffffffffffffffffff1614151561225557600080fd5b81600960006101000a81548173ffffffffffffffffffffffffffffffffffffffff021916908373ffffffffffffffffffffffffffffffffffffffff16021790555080600a60006101000a81548173ffffffffffffffffffffffffffffffffffffffff021916908373ffffffffffffffffffffffffffffffffffffffff1602179055506005600460006101000a81548160ff0219169083600b8111156122f657fe5b02179055506123396040805190810160405280601481526020017f5472616e7366657242696c6c4f664c6164696e67000000000000000000000000815250612770565b5050565b6001600b81111561234a57fe5b600460009054906101000a900460ff16600b81111561236557fe5b14156123f057600760009054906101000a900473ffffffffffffffffffffffffffffffffffffffff1673ffffffffffffffffffffffffffffffffffffffff163373ffffffffffffffffffffffffffffffffffffffff161415156123c757600080fd5b6000600460006101000a81548160ff0219169083600b8111156123e657fe5b02179055506123f5565b600080fd5b6124336040805190810160405280601881526020017f416d656e644578706f7274446f63756d656e746174696f6e0000000000000000815250612770565b565b600e8054600181600116156101000203166002900480601f0160208091040260200160405190810160405280929190818152602001828054600181600116156101000203166002900480156124cb5780601f106124a0576101008083540402835291602001916124cb565b820191906000526020600020905b8154815290600101906020018083116124ae57829003601f168201915b505050505081565b6006600b8111156124e057fe5b600460009054906101000a900460ff16600b8111156124fb57fe5b14151561250757600080fd5b600a60009054906101000a900473ffffffffffffffffffffffffffffffffffffffff1673ffffffffffffffffffffffffffffffffffffffff163373ffffffffffffffffffffffffffffffffffffffff1614151561256357600080fd5b8060149080519060200190612579929190612959565b506007600460006101000a81548160ff0219169083600b81111561259957fe5b02179055506125dc6040805190810160405280601081526020017f53656e6452656c656173654f7264657200000000000000000000000000000000815250612770565b50565b600460009054906101000a900460ff1681565b6007600b8111156125ff57fe5b600460009054906101000a900460ff16600b81111561261a57fe5b14151561262657600080fd5b600960009054906101000a900473ffffffffffffffffffffffffffffffffffffffff1673ffffffffffffffffffffffffffffffffffffffff163373ffffffffffffffffffffffffffffffffffffffff1614151561268257600080fd5b8060159080519060200190612698929190612959565b506008600460006101000a81548160ff0219169083600b8111156126b857fe5b02179055506126fb6040805190810160405280601181526020017f53656e6444656c69766572794f72646572000000000000000000000000000000815250612770565b50565b600760009054906101000a900473ffffffffffffffffffffffffffffffffffffffff1681565b600a60009054906101000a900473ffffffffffffffffffffffffffffffffffffffff1681565b600260009054906101000a900473ffffffffffffffffffffffffffffffffffffffff1681565b7fa13bd79f323c399d36191e886ded389c940ccd7e6dd744d1505943592fb2b433600060018333604051808060200180602001806020018573ffffffffffffffffffffffffffffffffffffffff1673ffffffffffffffffffffffffffffffffffffffff16815260200184810384528881815460018160011615610100020316600290048152602001915080546001816001161561010002031660029004801561285a5780601f1061282f5761010080835404028352916020019161285a565b820191906000526020600020905b81548152906001019060200180831161283d57829003601f168201915b50508481038352878181546001816001161561010002031660029004815260200191508054600181600116156101000203166002900480156128dd5780601f106128b2576101008083540402835291602001916128dd565b820191906000526020600020905b8154815290600101906020018083116128c057829003601f168201915b5050848103825286818151815260200191508051906020019080838360005b838110156129175780820151818401526020810190506128fc565b50505050905090810190601f1680156129445780820380516001836020036101000a031916815260200191505b5097505050505050505060405180910390a150565b828054600181600116156101000203166002900490600052602060002090601f016020900481019282601f1061299a57805160ff19168380011785556129c8565b828001600101855582156129c8579182015b828111156129c75782518255916020019190600101906129ac565b5b5090506129d591906129d9565b5090565b6129fb91905b808211156129f75760008160009055506001016129df565b5090565b905600a165627a7a7230582054be06c12cf9de6aec80da4b729cfdfe1a38624bdb932dbf6e245a437747a6130029",
  "source": "pragma solidity ^0.4.24;\n\ncontract WorkbenchBase {\n    event WorkbenchContractCreated(string applicationName, string workflowName, address originatingAddress);\n    event WorkbenchContractUpdated(string applicationName, string workflowName, string action, address originatingAddress);\n\n    string internal ApplicationName;\n    string internal WorkflowName;\n\n    constructor(string applicationName, string workflowName) internal {\n        ApplicationName = applicationName;\n        WorkflowName = workflowName;\n    }\n\n    function ContractCreated() internal {\n        emit WorkbenchContractCreated(ApplicationName, WorkflowName, msg.sender);\n    }\n\n    function ContractUpdated(string action) internal {\n        emit WorkbenchContractUpdated(ApplicationName, WorkflowName, action, msg.sender);\n    }\n}\n\ncontract SupplyChainTransportation is WorkbenchBase('SupplyChainTransportation', 'SupplyChainTransportation')\n{\n    enum StateType { BeginTrade, ExportClearance, ShipmentInitiation, ShipmentBoarding, TransferBillOfLading, ShipmentInTransit, ImportClearance, RecoverShipment, ShipmentDelivery, ShipmentFinalize, ShipmentComplete, Terminated }\n    address public InstanceShipper;\n    string public Description;\n    StateType public State;\n\n    struct Doc{\n        string name;\n        string size;\n        string docID;\n    }\n\n    mapping(string => Doc) document;\n\n    address public InstanceFreightCarrier;\n    address public InstanceOriginCustoms;\n    address public InstanceDrayageAgent;\n    address public InstanceDestinationCustomsBroker;\n    address public InstanceDestinationCustoms;\n    address public InstanceConsignee;\n\n    string public Seller;\n    string public PortOfDischarge;\n    string public OriginBank;\n    string public ExportDocument;\n    string public CustomsDocument;\n    string public ShippingDocuments;\n    string public DraftBillOfLadingDocument;\n    string public FinalBillOfLadingDocument;\n    string public ReleaseOrderDocument;\n    string public DeliveryOrderDocument;\n\n    constructor(address creator, string description, address freightCarrier, address originCustoms, address consignee) public{\n        InstanceShipper = creator;\n        Description = description;\n        State = StateType.BeginTrade;\n        InstanceFreightCarrier = freightCarrier;\n        InstanceOriginCustoms = originCustoms;\n        InstanceConsignee = consignee;        \n        ContractCreated();\n    }\n\n    function Terminate() public{\n        if (State == StateType.ExportClearance) \n        {\n            require(msg.sender == InstanceOriginCustoms);\n        }\n        else if (State == StateType.ImportClearance) \n        {\n            require(msg.sender == InstanceDestinationCustoms);\n        }\n        else if (State == StateType.ShipmentFinalize) \n        {\n            require(msg.sender == InstanceConsignee);\n        }\n        State = StateType.Terminated;\n        ContractUpdated('Terminate');\n    }\n\n\n    function ApproveExportDocumentation() public\n    {\n        if(State == StateType.ExportClearance)\n        {\n            require(msg.sender == InstanceOriginCustoms);\n            State = StateType.ShipmentInitiation;\n        }\n        else\n        {\n            revert();\n        }\n\n        ContractUpdated('ApproveExportDocumentation');\n    }\n\n    function SendDeliveryOrderForConsigneeSignature() public\n    {\n        if(State == StateType.ShipmentDelivery)\n        {\n            require(msg.sender == InstanceDrayageAgent);\n            State = StateType.ShipmentFinalize;\n        }\n        else\n        {\n            revert();\n        }\n\n        ContractUpdated('SendDeliveryOrderForConsigneeSignature');\n    }\n\n    function ApproveDelivery() public\n    {\n        if(State == StateType.ShipmentFinalize)\n        {\n            require(msg.sender == InstanceConsignee);\n            State = StateType.ShipmentComplete;\n        }\n        else\n        {\n            revert();\n        }\n\n        ContractUpdated('ApproveDelivery');\n    }\n\n    function AmendExportDocumentation() public\n    {\n        if(State == StateType.ExportClearance)\n        {\n            require(msg.sender == InstanceOriginCustoms);\n            State = StateType.BeginTrade;\n        }\n        else\n        {\n            revert();\n        }\n\n        ContractUpdated('AmendExportDocumentation');\n    }\n    \n    function AmendBillOfLading() public\n    {\n        if(State == StateType.ShipmentBoarding)\n        {\n            require(msg.sender == InstanceFreightCarrier);\n            State = StateType.ShipmentInitiation;\n        }\n        else\n        {\n            revert();\n        }\n\n        ContractUpdated('AmendBillOfLading');\n    }\n\n    function AmendImportDocuments() public\n    {\n        if(State == StateType.ImportClearance)\n        {\n            require(msg.sender == InstanceDestinationCustoms);\n            State = StateType.ShipmentInTransit;\n        }\n        else\n        {\n            revert();\n        }\n\n        ContractUpdated('AmendImportDocuments');\n    }\n\n    function ExportClearance (string seller, string portOfDischarge, string originBank, \n        string exportDocument, string customsDocument) public \n    {\n        require(State == StateType.BeginTrade);\n        require(msg.sender == InstanceShipper);\n       \n        Seller = seller;\n        PortOfDischarge = portOfDischarge;\n        OriginBank = originBank;\n        ExportDocument = exportDocument;\n        CustomsDocument = customsDocument;\n\n        State = StateType.ExportClearance;\n\n        ContractUpdated('ExportClearance');\n    }\n\n    function UploadShippingDocuments(string shippingDocuments, string draftBillOfLadingDocument) public\n    {\n        require(State == StateType.ShipmentInitiation);\n        require(msg.sender == InstanceShipper);\n\n        ShippingDocuments = shippingDocuments;\n        DraftBillOfLadingDocument = draftBillOfLadingDocument;\n\n        State = StateType.ShipmentBoarding;\n\n        ContractUpdated('UploadShippingDocuments');\n    }\n\n    function UploadFinalBillOfLading(string finalBillOfLadingDocument) public\n    {\n        require(State == StateType.ShipmentBoarding);\n        require(msg.sender == InstanceFreightCarrier);\n\n        FinalBillOfLadingDocument = finalBillOfLadingDocument;\n        State = StateType.TransferBillOfLading;\n        ContractUpdated('UploadFinalBillOfLading');\n    }\n\n    function TransferBillOfLading(address destinationCustomsBroker, address destinationCustoms) public {\n        require(State == StateType.TransferBillOfLading);\n        require(msg.sender == InstanceShipper);\n      \n        InstanceDestinationCustomsBroker = destinationCustomsBroker;\n        InstanceDestinationCustoms = destinationCustoms;\n      \n        State = StateType.ShipmentInTransit;\n      \n        ContractUpdated('TransferBillOfLading');\n    }\n\n    function SendBillOfLadingToCustoms(address drayageAgent) public {\n        require(State == StateType.ShipmentInTransit);\n        require(msg.sender == InstanceDestinationCustomsBroker);\n        \n        InstanceDrayageAgent = drayageAgent;\n        \n        State = StateType.ImportClearance;\n        \n        ContractUpdated('SendBillOfLadingToCustoms');\n    }\n\n    function SendReleaseOrder(string releaseOrderDocument) public\n    {\n        require(State == StateType.ImportClearance);\n        require(msg.sender == InstanceDestinationCustoms);\n\n        ReleaseOrderDocument = releaseOrderDocument;\n\n        State = StateType.RecoverShipment;\n\n        ContractUpdated('SendReleaseOrder');\n    }\n\n    function SendDeliveryOrder(string deliveryOrderDocument) public\n    {\n        require(State == StateType.RecoverShipment);\n        require(msg.sender == InstanceDestinationCustomsBroker);\n\n        DeliveryOrderDocument = deliveryOrderDocument;\n\n        State = StateType.ShipmentDelivery;\n\n        ContractUpdated('SendDeliveryOrder');\n    }\n}\n",
  "sourcePath": "/media/pyofey/DATA/Coding/Projects/2018_11_06_azure_truffle/contracts/SupplyChainTransportation.sol",
  "compiler": {
    "name": "solc",
    "version": "0.4.24+commit.e67f0147.Emscripten.clang"
  },
  "schemaVersion": "2.0.1",
  "updatedAt": "2018-11-20T18:08:29.871Z"
}