{
  "contractName": "SupplyChainTransportation",
  "abi": [
    {
      "constant": true,
      "inputs": [],
      "name": "Seller",
      "outputs": [
        {
          "name": "",
          "type": "string"
        }
      ],
      "payable": false,
      "stateMutability": "view",
      "type": "function"
    },
    {
      "constant": true,
      "inputs": [],
      "name": "Killed",
      "outputs": [
        {
          "name": "",
          "type": "bool"
        }
      ],
      "payable": false,
      "stateMutability": "view",
      "type": "function"
    },
    {
      "constant": true,
      "inputs": [],
      "name": "ShippingDocuments",
      "outputs": [
        {
          "name": "",
          "type": "string"
        }
      ],
      "payable": false,
      "stateMutability": "view",
      "type": "function"
    },
    {
      "constant": true,
      "inputs": [],
      "name": "DraftBillOfLadingDocument",
      "outputs": [
        {
          "name": "",
          "type": "string"
        }
      ],
      "payable": false,
      "stateMutability": "view",
      "type": "function"
    },
    {
      "constant": true,
      "inputs": [],
      "name": "ExportDocument",
      "outputs": [
        {
          "name": "",
          "type": "string"
        }
      ],
      "payable": false,
      "stateMutability": "view",
      "type": "function"
    },
    {
      "constant": true,
      "inputs": [],
      "name": "ReleaseOrderDocument",
      "outputs": [
        {
          "name": "",
          "type": "string"
        }
      ],
      "payable": false,
      "stateMutability": "view",
      "type": "function"
    },
    {
      "constant": true,
      "inputs": [],
      "name": "FinalBillOfLadingDocument",
      "outputs": [
        {
          "name": "",
          "type": "string"
        }
      ],
      "payable": false,
      "stateMutability": "view",
      "type": "function"
    },
    {
      "constant": true,
      "inputs": [],
      "name": "CustomsDocument",
      "outputs": [
        {
          "name": "",
          "type": "string"
        }
      ],
      "payable": false,
      "stateMutability": "view",
      "type": "function"
    },
    {
      "constant": true,
      "inputs": [],
      "name": "Description",
      "outputs": [
        {
          "name": "",
          "type": "string"
        }
      ],
      "payable": false,
      "stateMutability": "view",
      "type": "function"
    },
    {
      "constant": true,
      "inputs": [],
      "name": "InstanceDestinationCustomsBroker",
      "outputs": [
        {
          "name": "",
          "type": "address"
        }
      ],
      "payable": false,
      "stateMutability": "view",
      "type": "function"
    },
    {
      "constant": true,
      "inputs": [],
      "name": "InstanceConsignee",
      "outputs": [
        {
          "name": "",
          "type": "address"
        }
      ],
      "payable": false,
      "stateMutability": "view",
      "type": "function"
    },
    {
      "constant": true,
      "inputs": [],
      "name": "InstanceDrayageAgent",
      "outputs": [
        {
          "name": "",
          "type": "address"
        }
      ],
      "payable": false,
      "stateMutability": "view",
      "type": "function"
    },
    {
      "constant": true,
      "inputs": [],
      "name": "InstanceFreightCarrier",
      "outputs": [
        {
          "name": "",
          "type": "address"
        }
      ],
      "payable": false,
      "stateMutability": "view",
      "type": "function"
    },
    {
      "constant": true,
      "inputs": [],
      "name": "PortOfDischarge",
      "outputs": [
        {
          "name": "",
          "type": "string"
        }
      ],
      "payable": false,
      "stateMutability": "view",
      "type": "function"
    },
    {
      "constant": true,
      "inputs": [],
      "name": "DeliveryOrderDocument",
      "outputs": [
        {
          "name": "",
          "type": "string"
        }
      ],
      "payable": false,
      "stateMutability": "view",
      "type": "function"
    },
    {
      "constant": true,
      "inputs": [],
      "name": "OriginBank",
      "outputs": [
        {
          "name": "",
          "type": "string"
        }
      ],
      "payable": false,
      "stateMutability": "view",
      "type": "function"
    },
    {
      "constant": true,
      "inputs": [],
      "name": "State",
      "outputs": [
        {
          "name": "",
          "type": "uint8"
        }
      ],
      "payable": false,
      "stateMutability": "view",
      "type": "function"
    },
    {
      "constant": true,
      "inputs": [],
      "name": "InstanceOriginCustoms",
      "outputs": [
        {
          "name": "",
          "type": "address"
        }
      ],
      "payable": false,
      "stateMutability": "view",
      "type": "function"
    },
    {
      "constant": true,
      "inputs": [],
      "name": "InstanceDestinationCustoms",
      "outputs": [
        {
          "name": "",
          "type": "address"
        }
      ],
      "payable": false,
      "stateMutability": "view",
      "type": "function"
    },
    {
      "constant": true,
      "inputs": [],
      "name": "InstanceShipper",
      "outputs": [
        {
          "name": "",
          "type": "address"
        }
      ],
      "payable": false,
      "stateMutability": "view",
      "type": "function"
    },
    {
      "inputs": [
        {
          "name": "creator",
          "type": "address"
        },
        {
          "name": "description",
          "type": "string"
        },
        {
          "name": "freightCarrier",
          "type": "address"
        },
        {
          "name": "originCustoms",
          "type": "address"
        },
        {
          "name": "consignee",
          "type": "address"
        }
      ],
      "payable": false,
      "stateMutability": "nonpayable",
      "type": "constructor"
    },
    {
      "anonymous": false,
      "inputs": [
        {
          "indexed": false,
          "name": "applicationName",
          "type": "string"
        },
        {
          "indexed": false,
          "name": "workflowName",
          "type": "string"
        },
        {
          "indexed": false,
          "name": "originatingAddress",
          "type": "address"
        }
      ],
      "name": "WorkbenchContractCreated",
      "type": "event"
    },
    {
      "anonymous": false,
      "inputs": [
        {
          "indexed": false,
          "name": "applicationName",
          "type": "string"
        },
        {
          "indexed": false,
          "name": "workflowName",
          "type": "string"
        },
        {
          "indexed": false,
          "name": "action",
          "type": "string"
        },
        {
          "indexed": false,
          "name": "originatingAddress",
          "type": "address"
        }
      ],
      "name": "WorkbenchContractUpdated",
      "type": "event"
    },
    {
      "constant": false,
      "inputs": [],
      "name": "Terminate",
      "outputs": [],
      "payable": false,
      "stateMutability": "nonpayable",
      "type": "function"
    },
    {
      "constant": false,
      "inputs": [],
      "name": "ApproveExportDocumentation",
      "outputs": [],
      "payable": false,
      "stateMutability": "nonpayable",
      "type": "function"
    },
    {
      "constant": false,
      "inputs": [],
      "name": "SendDeliveryOrderForConsigneeSignature",
      "outputs": [],
      "payable": false,
      "stateMutability": "nonpayable",
      "type": "function"
    },
    {
      "constant": false,
      "inputs": [],
      "name": "ApproveDelivery",
      "outputs": [],
      "payable": false,
      "stateMutability": "nonpayable",
      "type": "function"
    },
    {
      "constant": false,
      "inputs": [],
      "name": "AmendExportDocumentation",
      "outputs": [],
      "payable": false,
      "stateMutability": "nonpayable",
      "type": "function"
    },
    {
      "constant": false,
      "inputs": [],
      "name": "AmendBillOfLading",
      "outputs": [],
      "payable": false,
      "stateMutability": "nonpayable",
      "type": "function"
    },
    {
      "constant": false,
      "inputs": [],
      "name": "AmendImportDocuments",
      "outputs": [],
      "payable": false,
      "stateMutability": "nonpayable",
      "type": "function"
    },
    {
      "constant": false,
      "inputs": [
        {
          "name": "seller",
          "type": "string"
        },
        {
          "name": "portOfDischarge",
          "type": "string"
        },
        {
          "name": "originBank",
          "type": "string"
        },
        {
          "name": "exportDocument",
          "type": "string"
        },
        {
          "name": "customsDocument",
          "type": "string"
        }
      ],
      "name": "ExportClearance",
      "outputs": [],
      "payable": false,
      "stateMutability": "nonpayable",
      "type": "function"
    },
    {
      "constant": false,
      "inputs": [
        {
          "name": "shippingDocuments",
          "type": "string"
        },
        {
          "name": "draftBillOfLadingDocument",
          "type": "string"
        }
      ],
      "name": "UploadShippingDocuments",
      "outputs": [],
      "payable": false,
      "stateMutability": "nonpayable",
      "type": "function"
    },
    {
      "constant": false,
      "inputs": [
        {
          "name": "finalBillOfLadingDocument",
          "type": "string"
        }
      ],
      "name": "UploadFinalBillOfLading",
      "outputs": [],
      "payable": false,
      "stateMutability": "nonpayable",
      "type": "function"
    },
    {
      "constant": false,
      "inputs": [
        {
          "name": "destinationCustomsBroker",
          "type": "address"
        },
        {
          "name": "destinationCustoms",
          "type": "address"
        }
      ],
      "name": "TransferBillOfLading",
      "outputs": [],
      "payable": false,
      "stateMutability": "nonpayable",
      "type": "function"
    },
    {
      "constant": false,
      "inputs": [
        {
          "name": "drayageAgent",
          "type": "address"
        }
      ],
      "name": "SendBillOfLadingToCustoms",
      "outputs": [],
      "payable": false,
      "stateMutability": "nonpayable",
      "type": "function"
    },
    {
      "constant": false,
      "inputs": [
        {
          "name": "releaseOrderDocument",
          "type": "string"
        }
      ],
      "name": "SendReleaseOrder",
      "outputs": [],
      "payable": false,
      "stateMutability": "nonpayable",
      "type": "function"
    },
    {
      "constant": false,
      "inputs": [
        {
          "name": "deliveryOrderDocument",
          "type": "string"
        }
      ],
      "name": "SendDeliveryOrder",
      "outputs": [],
      "payable": false,
      "stateMutability": "nonpayable",
      "type": "function"
    },
    {
      "constant": true,
      "inputs": [],
      "name": "getMetaData",
      "outputs": [
        {
          "name": "_killed",
          "type": "bool"
        },
        {
          "name": "_Description",
          "type": "string"
        },
        {
          "name": "_State",
          "type": "uint8"
        },
        {
          "name": "timeSinceLastAction",
          "type": "uint256"
        },
        {
          "name": "_lastAction",
          "type": "uint256[]"
        },
        {
          "name": "_stateHistory",
          "type": "uint8[]"
        }
      ],
      "payable": false,
      "stateMutability": "view",
      "type": "function"
    },
    {
      "constant": true,
      "inputs": [],
      "name": "getAllAddress",
      "outputs": [
        {
          "name": "",
          "type": "address"
        },
        {
          "name": "",
          "type": "address"
        },
        {
          "name": "",
          "type": "address"
        },
        {
          "name": "",
          "type": "address"
        },
        {
          "name": "",
          "type": "address"
        },
        {
          "name": "",
          "type": "address"
        }
      ],
      "payable": false,
      "stateMutability": "view",
      "type": "function"
    },
    {
      "constant": false,
      "inputs": [],
      "name": "kill",
      "outputs": [],
      "payable": false,
      "stateMutability": "nonpayable",
      "type": "function"
    }
  ],
  "bytecode": "0x60806040523480156200001157600080fd5b5060405162003e0738038062003e0783398101806040528101908080519060200190929190805182019291906020018051906020019092919080519060200190929190805190602001909291905050506040805190810160405280601981526020017f537570706c79436861696e5472616e73706f72746174696f6e000000000000008152506040805190810160405280601981526020017f537570706c79436861696e5472616e73706f72746174696f6e000000000000008152508160009080519060200190620000e592919062000476565b508060019080519060200190620000fe92919062000476565b50505084600360016101000a81548173ffffffffffffffffffffffffffffffffffffffff021916908373ffffffffffffffffffffffffffffffffffffffff16021790555083600490805190602001906200015a92919062000476565b506000600560006101000a81548160ff0219169083600b8111156200017b57fe5b021790555082600760006101000a81548173ffffffffffffffffffffffffffffffffffffffff021916908373ffffffffffffffffffffffffffffffffffffffff16021790555081600860006101000a81548173ffffffffffffffffffffffffffffffffffffffff021916908373ffffffffffffffffffffffffffffffffffffffff16021790555080600c60006101000a81548173ffffffffffffffffffffffffffffffffffffffff021916908373ffffffffffffffffffffffffffffffffffffffff16021790555060024290806001815401808255809150509060018203906000526020600020016000909192909190915055506006600560009054906101000a900460ff16908060018154018082558091505090600182039060005260206000209060209182820401919006909192909190916101000a81548160ff0219169083600b811115620002c957fe5b021790555050620002e8620002f3640100000000026401000000009004565b505050505062000525565b7f5164ff06e10737dceb282871701b28082988339e79ba9d49c6c9b0e00312982b60006001336040518080602001806020018473ffffffffffffffffffffffffffffffffffffffff1673ffffffffffffffffffffffffffffffffffffffff168152602001838103835286818154600181600116156101000203166002900481526020019150805460018160011615610100020316600290048015620003dc5780601f10620003b057610100808354040283529160200191620003dc565b820191906000526020600020905b815481529060010190602001808311620003be57829003601f168201915b5050838103825285818154600181600116156101000203166002900481526020019150805460018160011615610100020316600290048015620004635780601f10620004375761010080835404028352916020019162000463565b820191906000526020600020905b8154815290600101906020018083116200044557829003601f168201915b50509550505050505060405180910390a1565b828054600181600116156101000203166002900490600052602060002090601f016020900481019282601f10620004b957805160ff1916838001178555620004ea565b82800160010185558215620004ea579182015b82811115620004e9578251825591602001919060010190620004cc565b5b509050620004f99190620004fd565b5090565b6200052291905b808211156200051e57600081600090555060010162000504565b5090565b90565b6138d280620005356000396000f3006080604052600436106101cd576000357c0100000000000000000000000000000000000000000000000000000000900463ffffffff16806304c0a755146101d257806307fd3687146101e95780630838d275146102795780630f8eeedb14610290578063121e49cd146102bf578063131f00e91461034f57806313ec4048146104d0578063387ac791146104e75780633b2e3c9c146104fe5780633be68526146105ad57806341c0e1b5146105f05780634538d82714610607578063495896191461069757806351f69285146107005780635f6d157714610790578063657f3b85146108205780636d596202146108b0578063715b208b146109405780638191745f14610a9657806385090ac714610b2657806389ffce5214610b7d578063911ee4a314610bd45780639445eb3a14610c2b5780639d98449b14610c42578063a7585d2614610c99578063aedc2aa214610d29578063b2b4a2d714610d40578063b7f5ccb914610dd0578063b866519414610e33578063d2786ba414610e4a578063da2939fb14610f91578063da955c6514611021578063f1b6dccd1461108a578063f34d64f8146110c3578063f5ec14cb1461112c578063f6c96e2d14611183578063feeeeac0146111da575b600080fd5b3480156101de57600080fd5b506101e7611231565b005b3480156101f557600080fd5b506101fe6113b4565b6040518080602001828103825283818151815260200191508051906020019080838360005b8381101561023e578082015181840152602081019050610223565b50505050905090810190601f16801561026b5780820380516001836020036101000a031916815260200191505b509250505060405180910390f35b34801561028557600080fd5b5061028e611452565b005b34801561029c57600080fd5b506102a56115d5565b604051808215151515815260200191505060405180910390f35b3480156102cb57600080fd5b506102d46115e8565b6040518080602001828103825283818151815260200191508051906020019080838360005b838110156103145780820151818401526020810190506102f9565b50505050905090810190601f1680156103415780820380516001836020036101000a031916815260200191505b509250505060405180910390f35b34801561035b57600080fd5b506104ce600480360381019080803590602001908201803590602001908080601f0160208091040260200160405190810160405280939291908181526020018383808284378201915050505050509192919290803590602001908201803590602001908080601f0160208091040260200160405190810160405280939291908181526020018383808284378201915050505050509192919290803590602001908201803590602001908080601f0160208091040260200160405190810160405280939291908181526020018383808284378201915050505050509192919290803590602001908201803590602001908080601f0160208091040260200160405190810160405280939291908181526020018383808284378201915050505050509192919290803590602001908201803590602001908080601f0160208091040260200160405190810160405280939291908181526020018383808284378201915050505050509192919290505050611686565b005b3480156104dc57600080fd5b506104e561187d565b005b3480156104f357600080fd5b506104fc6119ff565b005b34801561050a57600080fd5b506105ab600480360381019080803590602001908201803590602001908080601f0160208091040260200160405190810160405280939291908181526020018383808284378201915050505050509192919290803590602001908201803590602001908080601f0160208091040260200160405190810160405280939291908181526020018383808284378201915050505050509192919290505050611b82565b005b3480156105b957600080fd5b506105ee600480360381019080803573ffffffffffffffffffffffffffffffffffffffff169060200190929190505050611d31565b005b3480156105fc57600080fd5b50610605611ef2565b005b34801561061357600080fd5b5061061c612023565b6040518080602001828103825283818151815260200191508051906020019080838360005b8381101561065c578082015181840152602081019050610641565b50505050905090810190601f1680156106895780820380516001836020036101000a031916815260200191505b509250505060405180910390f35b3480156106a357600080fd5b506106fe600480360381019080803590602001908201803590602001908080601f01602080910402602001604051908101604052809392919081815260200183838082843782019150505050505091929192905050506120c1565b005b34801561070c57600080fd5b50610715612258565b6040518080602001828103825283818151815260200191508051906020019080838360005b8381101561075557808201518184015260208101905061073a565b50505050905090810190601f1680156107825780820380516001836020036101000a031916815260200191505b509250505060405180910390f35b34801561079c57600080fd5b506107a56122f6565b6040518080602001828103825283818151815260200191508051906020019080838360005b838110156107e55780820151818401526020810190506107ca565b50505050905090810190601f1680156108125780820380516001836020036101000a031916815260200191505b509250505060405180910390f35b34801561082c57600080fd5b50610835612394565b6040518080602001828103825283818151815260200191508051906020019080838360005b8381101561087557808201518184015260208101905061085a565b50505050905090810190601f1680156108a25780820380516001836020036101000a031916815260200191505b509250505060405180910390f35b3480156108bc57600080fd5b506108c5612432565b6040518080602001828103825283818151815260200191508051906020019080838360005b838110156109055780820151818401526020810190506108ea565b50505050905090810190601f1680156109325780820380516001836020036101000a031916815260200191505b509250505060405180910390f35b34801561094c57600080fd5b506109556124d0565b604051808773ffffffffffffffffffffffffffffffffffffffff1673ffffffffffffffffffffffffffffffffffffffff1681526020018673ffffffffffffffffffffffffffffffffffffffff1673ffffffffffffffffffffffffffffffffffffffff1681526020018573ffffffffffffffffffffffffffffffffffffffff1673ffffffffffffffffffffffffffffffffffffffff1681526020018473ffffffffffffffffffffffffffffffffffffffff1673ffffffffffffffffffffffffffffffffffffffff1681526020018373ffffffffffffffffffffffffffffffffffffffff1673ffffffffffffffffffffffffffffffffffffffff1681526020018273ffffffffffffffffffffffffffffffffffffffff1673ffffffffffffffffffffffffffffffffffffffff168152602001965050505050505060405180910390f35b348015610aa257600080fd5b50610aab6125bf565b6040518080602001828103825283818151815260200191508051906020019080838360005b83811015610aeb578082015181840152602081019050610ad0565b50505050905090810190601f168015610b185780820380516001836020036101000a031916815260200191505b509250505060405180910390f35b348015610b3257600080fd5b50610b3b61265d565b604051808273ffffffffffffffffffffffffffffffffffffffff1673ffffffffffffffffffffffffffffffffffffffff16815260200191505060405180910390f35b348015610b8957600080fd5b50610b92612683565b604051808273ffffffffffffffffffffffffffffffffffffffff1673ffffffffffffffffffffffffffffffffffffffff16815260200191505060405180910390f35b348015610be057600080fd5b50610be96126a9565b604051808273ffffffffffffffffffffffffffffffffffffffff1673ffffffffffffffffffffffffffffffffffffffff16815260200191505060405180910390f35b348015610c3757600080fd5b50610c406126cf565b005b348015610c4e57600080fd5b50610c57612969565b604051808273ffffffffffffffffffffffffffffffffffffffff1673ffffffffffffffffffffffffffffffffffffffff16815260200191505060405180910390f35b348015610ca557600080fd5b50610cae61298f565b6040518080602001828103825283818151815260200191508051906020019080838360005b83811015610cee578082015181840152602081019050610cd3565b50505050905090810190601f168015610d1b5780820380516001836020036101000a031916815260200191505b509250505060405180910390f35b348015610d3557600080fd5b50610d3e612a2d565b005b348015610d4c57600080fd5b50610d55612bd7565b6040518080602001828103825283818151815260200191508051906020019080838360005b83811015610d95578082015181840152602081019050610d7a565b50505050905090810190601f168015610dc25780820380516001836020036101000a031916815260200191505b509250505060405180910390f35b348015610ddc57600080fd5b50610e31600480360381019080803573ffffffffffffffffffffffffffffffffffffffff169060200190929190803573ffffffffffffffffffffffffffffffffffffffff169060200190929190505050612c75565b005b348015610e3f57600080fd5b50610e48612e77565b005b348015610e5657600080fd5b50610e5f612ffa565b60405180871515151581526020018060200186600b811115610e7d57fe5b60ff1681526020018581526020018060200180602001848103845289818151815260200191508051906020019080838360005b83811015610ecb578082015181840152602081019050610eb0565b50505050905090810190601f168015610ef85780820380516001836020036101000a031916815260200191505b50848103835286818151815260200191508051906020019060200280838360005b83811015610f34578082015181840152602081019050610f19565b50505050905001848103825285818151815260200191508051906020019060200280838360005b83811015610f76578082015181840152602081019050610f5b565b50505050905001995050505050505050505060405180910390f35b348015610f9d57600080fd5b50610fa66131c7565b6040518080602001828103825283818151815260200191508051906020019080838360005b83811015610fe6578082015181840152602081019050610fcb565b50505050905090810190601f1680156110135780820380516001836020036101000a031916815260200191505b509250505060405180910390f35b34801561102d57600080fd5b50611088600480360381019080803590602001908201803590602001908080601f0160208091040260200160405190810160405280939291908181526020018383808284378201915050505050509192919290505050613265565b005b34801561109657600080fd5b5061109f6133fc565b6040518082600b8111156110af57fe5b60ff16815260200191505060405180910390f35b3480156110cf57600080fd5b5061112a600480360381019080803590602001908201803590602001908080601f016020809104026020016040519081016040528093929190818152602001838380828437820191505050505050919291929050505061340f565b005b34801561113857600080fd5b506111416135a6565b604051808273ffffffffffffffffffffffffffffffffffffffff1673ffffffffffffffffffffffffffffffffffffffff16815260200191505060405180910390f35b34801561118f57600080fd5b506111986135cc565b604051808273ffffffffffffffffffffffffffffffffffffffff1673ffffffffffffffffffffffffffffffffffffffff16815260200191505060405180910390f35b3480156111e657600080fd5b506111ef6135f2565b604051808273ffffffffffffffffffffffffffffffffffffffff1673ffffffffffffffffffffffffffffffffffffffff16815260200191505060405180910390f35b6003600b81111561123e57fe5b600560009054906101000a900460ff16600b81111561125957fe5b141561136f57600760009054906101000a900473ffffffffffffffffffffffffffffffffffffffff1673ffffffffffffffffffffffffffffffffffffffff163373ffffffffffffffffffffffffffffffffffffffff161415156112bb57600080fd5b6002600560006101000a81548160ff0219169083600b8111156112da57fe5b021790555060024290806001815401808255809150509060018203906000526020600020016000909192909190915055506006600560009054906101000a900460ff16908060018154018082558091505090600182039060005260206000209060209182820401919006909192909190916101000a81548160ff0219169083600b81111561136457fe5b021790555050611374565b600080fd5b6113b26040805190810160405280601181526020017f416d656e6442696c6c4f664c6164696e67000000000000000000000000000000815250613618565b565b600d8054600181600116156101000203166002900480601f01602080910402602001604051908101604052809291908181526020018280546001816001161561010002031660029004801561144a5780601f1061141f5761010080835404028352916020019161144a565b820191906000526020600020905b81548152906001019060200180831161142d57829003601f168201915b505050505081565b6009600b81111561145f57fe5b600560009054906101000a900460ff16600b81111561147a57fe5b141561159057600c60009054906101000a900473ffffffffffffffffffffffffffffffffffffffff1673ffffffffffffffffffffffffffffffffffffffff163373ffffffffffffffffffffffffffffffffffffffff161415156114dc57600080fd5b600a600560006101000a81548160ff0219169083600b8111156114fb57fe5b021790555060024290806001815401808255809150509060018203906000526020600020016000909192909190915055506006600560009054906101000a900460ff16908060018154018082558091505090600182039060005260206000209060209182820401919006909192909190916101000a81548160ff0219169083600b81111561158557fe5b021790555050611595565b600080fd5b6115d36040805190810160405280600f81526020017f417070726f766544656c69766572790000000000000000000000000000000000815250613618565b565b600360009054906101000a900460ff1681565b60128054600181600116156101000203166002900480601f01602080910402602001604051908101604052809291908181526020018280546001816001161561010002031660029004801561167e5780601f106116535761010080835404028352916020019161167e565b820191906000526020600020905b81548152906001019060200180831161166157829003601f168201915b505050505081565b6000600b81111561169357fe5b600560009054906101000a900460ff16600b8111156116ae57fe5b1415156116ba57600080fd5b600360019054906101000a900473ffffffffffffffffffffffffffffffffffffffff1673ffffffffffffffffffffffffffffffffffffffff163373ffffffffffffffffffffffffffffffffffffffff1614151561171657600080fd5b84600d908051906020019061172c929190613801565b5083600e9080519060200190611743929190613801565b5082600f908051906020019061175a929190613801565b508160109080519060200190611771929190613801565b508060119080519060200190611788929190613801565b506001600560006101000a81548160ff0219169083600b8111156117a857fe5b021790555060024290806001815401808255809150509060018203906000526020600020016000909192909190915055506006600560009054906101000a900460ff16908060018154018082558091505090600182039060005260206000209060209182820401919006909192909190916101000a81548160ff0219169083600b81111561183257fe5b0217905550506118766040805190810160405280600f81526020017f4578706f7274436c656172616e63650000000000000000000000000000000000815250613618565b5050505050565b6006600b81111561188a57fe5b600560009054906101000a900460ff16600b8111156118a557fe5b14156119ba57600b60009054906101000a900473ffffffffffffffffffffffffffffffffffffffff1673ffffffffffffffffffffffffffffffffffffffff163373ffffffffffffffffffffffffffffffffffffffff1614151561190757600080fd5b60058060006101000a81548160ff0219169083600b81111561192557fe5b021790555060024290806001815401808255809150509060018203906000526020600020016000909192909190915055506006600560009054906101000a900460ff16908060018154018082558091505090600182039060005260206000209060209182820401919006909192909190916101000a81548160ff0219169083600b8111156119af57fe5b0217905550506119bf565b600080fd5b6119fd6040805190810160405280601481526020017f416d656e64496d706f7274446f63756d656e7473000000000000000000000000815250613618565b565b6001600b811115611a0c57fe5b600560009054906101000a900460ff16600b811115611a2757fe5b1415611b3d57600860009054906101000a900473ffffffffffffffffffffffffffffffffffffffff1673ffffffffffffffffffffffffffffffffffffffff163373ffffffffffffffffffffffffffffffffffffffff16141515611a8957600080fd5b6002600560006101000a81548160ff0219169083600b811115611aa857fe5b021790555060024290806001815401808255809150509060018203906000526020600020016000909192909190915055506006600560009054906101000a900460ff16908060018154018082558091505090600182039060005260206000209060209182820401919006909192909190916101000a81548160ff0219169083600b811115611b3257fe5b021790555050611b42565b600080fd5b611b806040805190810160405280601a81526020017f417070726f76654578706f7274446f63756d656e746174696f6e000000000000815250613618565b565b6002600b811115611b8f57fe5b600560009054906101000a900460ff16600b811115611baa57fe5b141515611bb657600080fd5b600360019054906101000a900473ffffffffffffffffffffffffffffffffffffffff1673ffffffffffffffffffffffffffffffffffffffff163373ffffffffffffffffffffffffffffffffffffffff16141515611c1257600080fd5b8160129080519060200190611c28929190613801565b508060139080519060200190611c3f929190613801565b506003600560006101000a81548160ff0219169083600b811115611c5f57fe5b021790555060024290806001815401808255809150509060018203906000526020600020016000909192909190915055506006600560009054906101000a900460ff16908060018154018082558091505090600182039060005260206000209060209182820401919006909192909190916101000a81548160ff0219169083600b811115611ce957fe5b021790555050611d2d6040805190810160405280601781526020017f55706c6f61645368697070696e67446f63756d656e7473000000000000000000815250613618565b5050565b6005600b811115611d3e57fe5b600560009054906101000a900460ff16600b811115611d5957fe5b141515611d6557600080fd5b600a60009054906101000a900473ffffffffffffffffffffffffffffffffffffffff1673ffffffffffffffffffffffffffffffffffffffff163373ffffffffffffffffffffffffffffffffffffffff16141515611dc157600080fd5b80600960006101000a81548173ffffffffffffffffffffffffffffffffffffffff021916908373ffffffffffffffffffffffffffffffffffffffff1602179055506006600560006101000a81548160ff0219169083600b811115611e2157fe5b021790555060024290806001815401808255809150509060018203906000526020600020016000909192909190915055506006600560009054906101000a900460ff16908060018154018082558091505090600182039060005260206000209060209182820401919006909192909190916101000a81548160ff0219169083600b811115611eab57fe5b021790555050611eef6040805190810160405280601981526020017f53656e6442696c6c4f664c6164696e67546f437573746f6d7300000000000000815250613618565b50565b600b80811115611efe57fe5b600560009054906101000a900460ff16600b811115611f1957fe5b1480611f4a5750600a600b811115611f2d57fe5b600560009054906101000a900460ff16600b811115611f4857fe5b145b1515611f5557600080fd5b600360019054906101000a900473ffffffffffffffffffffffffffffffffffffffff1673ffffffffffffffffffffffffffffffffffffffff163373ffffffffffffffffffffffffffffffffffffffff16141515611fb157600080fd5b600360009054906101000a900460ff16151515611fcd57600080fd5b6001600360006101000a81548160ff021916908315150217905550600360019054906101000a900473ffffffffffffffffffffffffffffffffffffffff1673ffffffffffffffffffffffffffffffffffffffff16ff5b60138054600181600116156101000203166002900480601f0160208091040260200160405190810160405280929190818152602001828054600181600116156101000203166002900480156120b95780601f1061208e576101008083540402835291602001916120b9565b820191906000526020600020905b81548152906001019060200180831161209c57829003601f168201915b505050505081565b6003600b8111156120ce57fe5b600560009054906101000a900460ff16600b8111156120e957fe5b1415156120f557600080fd5b600760009054906101000a900473ffffffffffffffffffffffffffffffffffffffff1673ffffffffffffffffffffffffffffffffffffffff163373ffffffffffffffffffffffffffffffffffffffff1614151561215157600080fd5b8060149080519060200190612167929190613801565b506004600560006101000a81548160ff0219169083600b81111561218757fe5b021790555060024290806001815401808255809150509060018203906000526020600020016000909192909190915055506006600560009054906101000a900460ff16908060018154018082558091505090600182039060005260206000209060209182820401919006909192909190916101000a81548160ff0219169083600b81111561221157fe5b0217905550506122556040805190810160405280601781526020017f55706c6f616446696e616c42696c6c4f664c6164696e67000000000000000000815250613618565b50565b60108054600181600116156101000203166002900480601f0160208091040260200160405190810160405280929190818152602001828054600181600116156101000203166002900480156122ee5780601f106122c3576101008083540402835291602001916122ee565b820191906000526020600020905b8154815290600101906020018083116122d157829003601f168201915b505050505081565b60158054600181600116156101000203166002900480601f01602080910402602001604051908101604052809291908181526020018280546001816001161561010002031660029004801561238c5780601f106123615761010080835404028352916020019161238c565b820191906000526020600020905b81548152906001019060200180831161236f57829003601f168201915b505050505081565b60148054600181600116156101000203166002900480601f01602080910402602001604051908101604052809291908181526020018280546001816001161561010002031660029004801561242a5780601f106123ff5761010080835404028352916020019161242a565b820191906000526020600020905b81548152906001019060200180831161240d57829003601f168201915b505050505081565b60118054600181600116156101000203166002900480601f0160208091040260200160405190810160405280929190818152602001828054600181600116156101000203166002900480156124c85780601f1061249d576101008083540402835291602001916124c8565b820191906000526020600020905b8154815290600101906020018083116124ab57829003601f168201915b505050505081565b600080600080600080600860009054906101000a900473ffffffffffffffffffffffffffffffffffffffff16600760009054906101000a900473ffffffffffffffffffffffffffffffffffffffff16600b60009054906101000a900473ffffffffffffffffffffffffffffffffffffffff16600a60009054906101000a900473ffffffffffffffffffffffffffffffffffffffff16600960009054906101000a900473ffffffffffffffffffffffffffffffffffffffff16600c60009054906101000a900473ffffffffffffffffffffffffffffffffffffffff16955095509550955095509550909192939495565b60048054600181600116156101000203166002900480601f0160208091040260200160405190810160405280929190818152602001828054600181600116156101000203166002900480156126555780601f1061262a57610100808354040283529160200191612655565b820191906000526020600020905b81548152906001019060200180831161263857829003601f168201915b505050505081565b600a60009054906101000a900473ffffffffffffffffffffffffffffffffffffffff1681565b600c60009054906101000a900473ffffffffffffffffffffffffffffffffffffffff1681565b600960009054906101000a900473ffffffffffffffffffffffffffffffffffffffff1681565b6001600b8111156126dc57fe5b600560009054906101000a900460ff16600b8111156126f757fe5b141561275e57600860009054906101000a900473ffffffffffffffffffffffffffffffffffffffff1673ffffffffffffffffffffffffffffffffffffffff163373ffffffffffffffffffffffffffffffffffffffff1614151561275957600080fd5b61287a565b6006600b81111561276b57fe5b600560009054906101000a900460ff16600b81111561278657fe5b14156127ed57600b60009054906101000a900473ffffffffffffffffffffffffffffffffffffffff1673ffffffffffffffffffffffffffffffffffffffff163373ffffffffffffffffffffffffffffffffffffffff161415156127e857600080fd5b612879565b6009600b8111156127fa57fe5b600560009054906101000a900460ff16600b81111561281557fe5b141561287857600c60009054906101000a900473ffffffffffffffffffffffffffffffffffffffff1673ffffffffffffffffffffffffffffffffffffffff163373ffffffffffffffffffffffffffffffffffffffff1614151561287757600080fd5b5b5b5b600b600560006101000a81548160ff0219169083600b81111561289957fe5b021790555060024290806001815401808255809150509060018203906000526020600020016000909192909190915055506006600560009054906101000a900460ff16908060018154018082558091505090600182039060005260206000209060209182820401919006909192909190916101000a81548160ff0219169083600b81111561292357fe5b0217905550506129676040805190810160405280600981526020017f5465726d696e6174650000000000000000000000000000000000000000000000815250613618565b565b600760009054906101000a900473ffffffffffffffffffffffffffffffffffffffff1681565b600e8054600181600116156101000203166002900480601f016020809104026020016040519081016040528092919081815260200182805460018160011615610100020316600290048015612a255780601f106129fa57610100808354040283529160200191612a25565b820191906000526020600020905b815481529060010190602001808311612a0857829003601f168201915b505050505081565b6008600b811115612a3a57fe5b600560009054906101000a900460ff16600b811115612a5557fe5b1415612b6b57600960009054906101000a900473ffffffffffffffffffffffffffffffffffffffff1673ffffffffffffffffffffffffffffffffffffffff163373ffffffffffffffffffffffffffffffffffffffff16141515612ab757600080fd5b6009600560006101000a81548160ff0219169083600b811115612ad657fe5b021790555060024290806001815401808255809150509060018203906000526020600020016000909192909190915055506006600560009054906101000a900460ff16908060018154018082558091505090600182039060005260206000209060209182820401919006909192909190916101000a81548160ff0219169083600b811115612b6057fe5b021790555050612b70565b600080fd5b612bd5606060405190810160405280602681526020017f53656e6444656c69766572794f72646572466f72436f6e7369676e656553696781526020017f6e61747572650000000000000000000000000000000000000000000000000000815250613618565b565b60168054600181600116156101000203166002900480601f016020809104026020016040519081016040528092919081815260200182805460018160011615610100020316600290048015612c6d5780601f10612c4257610100808354040283529160200191612c6d565b820191906000526020600020905b815481529060010190602001808311612c5057829003601f168201915b505050505081565b6004600b811115612c8257fe5b600560009054906101000a900460ff16600b811115612c9d57fe5b141515612ca957600080fd5b600760009054906101000a900473ffffffffffffffffffffffffffffffffffffffff1673ffffffffffffffffffffffffffffffffffffffff163373ffffffffffffffffffffffffffffffffffffffff16141515612d0557600080fd5b81600a60006101000a81548173ffffffffffffffffffffffffffffffffffffffff021916908373ffffffffffffffffffffffffffffffffffffffff16021790555080600b60006101000a81548173ffffffffffffffffffffffffffffffffffffffff021916908373ffffffffffffffffffffffffffffffffffffffff16021790555060058060006101000a81548160ff0219169083600b811115612da557fe5b021790555060024290806001815401808255809150509060018203906000526020600020016000909192909190915055506006600560009054906101000a900460ff16908060018154018082558091505090600182039060005260206000209060209182820401919006909192909190916101000a81548160ff0219169083600b811115612e2f57fe5b021790555050612e736040805190810160405280601481526020017f5472616e7366657242696c6c4f664c6164696e67000000000000000000000000815250613618565b5050565b6001600b811115612e8457fe5b600560009054906101000a900460ff16600b811115612e9f57fe5b1415612fb557600860009054906101000a900473ffffffffffffffffffffffffffffffffffffffff1673ffffffffffffffffffffffffffffffffffffffff163373ffffffffffffffffffffffffffffffffffffffff16141515612f0157600080fd5b6000600560006101000a81548160ff0219169083600b811115612f2057fe5b021790555060024290806001815401808255809150509060018203906000526020600020016000909192909190915055506006600560009054906101000a900460ff16908060018154018082558091505090600182039060005260206000209060209182820401919006909192909190916101000a81548160ff0219169083600b811115612faa57fe5b021790555050612fba565b600080fd5b612ff86040805190810160405280601881526020017f416d656e644578706f7274446f63756d656e746174696f6e0000000000000000815250613618565b565b60006060600080606080600360009054906101000a900460ff16955060048054600181600116156101000203166002900480601f0160208091040260200160405190810160405280929190818152602001828054600181600116156101000203166002900480156130ac5780601f10613081576101008083540402835291602001916130ac565b820191906000526020600020905b81548152906001019060200180831161308f57829003601f168201915b50505050509450600560009054906101000a900460ff16935060026001600280549050038154811015156130dc57fe5b906000526020600020015442039250600280548060200260200160405190810160405280929190818152602001828054801561313757602002820191906000526020600020905b815481526020019060010190808311613123575b5050505050915060068054806020026020016040519081016040528092919081815260200182805480156131b857602002820191906000526020600020906000905b82829054906101000a900460ff16600b81111561319257fe5b815260200190600101906020826000010492830192600103820291508084116131795790505b50505050509050909192939495565b600f8054600181600116156101000203166002900480601f01602080910402602001604051908101604052809291908181526020018280546001816001161561010002031660029004801561325d5780601f106132325761010080835404028352916020019161325d565b820191906000526020600020905b81548152906001019060200180831161324057829003601f168201915b505050505081565b6006600b81111561327257fe5b600560009054906101000a900460ff16600b81111561328d57fe5b14151561329957600080fd5b600b60009054906101000a900473ffffffffffffffffffffffffffffffffffffffff1673ffffffffffffffffffffffffffffffffffffffff163373ffffffffffffffffffffffffffffffffffffffff161415156132f557600080fd5b806015908051906020019061330b929190613801565b506007600560006101000a81548160ff0219169083600b81111561332b57fe5b021790555060024290806001815401808255809150509060018203906000526020600020016000909192909190915055506006600560009054906101000a900460ff16908060018154018082558091505090600182039060005260206000209060209182820401919006909192909190916101000a81548160ff0219169083600b8111156133b557fe5b0217905550506133f96040805190810160405280601081526020017f53656e6452656c656173654f7264657200000000000000000000000000000000815250613618565b50565b600560009054906101000a900460ff1681565b6007600b81111561341c57fe5b600560009054906101000a900460ff16600b81111561343757fe5b14151561344357600080fd5b600a60009054906101000a900473ffffffffffffffffffffffffffffffffffffffff1673ffffffffffffffffffffffffffffffffffffffff163373ffffffffffffffffffffffffffffffffffffffff1614151561349f57600080fd5b80601690805190602001906134b5929190613801565b506008600560006101000a81548160ff0219169083600b8111156134d557fe5b021790555060024290806001815401808255809150509060018203906000526020600020016000909192909190915055506006600560009054906101000a900460ff16908060018154018082558091505090600182039060005260206000209060209182820401919006909192909190916101000a81548160ff0219169083600b81111561355f57fe5b0217905550506135a36040805190810160405280601181526020017f53656e6444656c69766572794f72646572000000000000000000000000000000815250613618565b50565b600860009054906101000a900473ffffffffffffffffffffffffffffffffffffffff1681565b600b60009054906101000a900473ffffffffffffffffffffffffffffffffffffffff1681565b600360019054906101000a900473ffffffffffffffffffffffffffffffffffffffff1681565b7fa13bd79f323c399d36191e886ded389c940ccd7e6dd744d1505943592fb2b433600060018333604051808060200180602001806020018573ffffffffffffffffffffffffffffffffffffffff1673ffffffffffffffffffffffffffffffffffffffff1681526020018481038452888181546001816001161561010002031660029004815260200191508054600181600116156101000203166002900480156137025780601f106136d757610100808354040283529160200191613702565b820191906000526020600020905b8154815290600101906020018083116136e557829003601f168201915b50508481038352878181546001816001161561010002031660029004815260200191508054600181600116156101000203166002900480156137855780601f1061375a57610100808354040283529160200191613785565b820191906000526020600020905b81548152906001019060200180831161376857829003601f168201915b5050848103825286818151815260200191508051906020019080838360005b838110156137bf5780820151818401526020810190506137a4565b50505050905090810190601f1680156137ec5780820380516001836020036101000a031916815260200191505b5097505050505050505060405180910390a150565b828054600181600116156101000203166002900490600052602060002090601f016020900481019282601f1061384257805160ff1916838001178555613870565b82800160010185558215613870579182015b8281111561386f578251825591602001919060010190613854565b5b50905061387d9190613881565b5090565b6138a391905b8082111561389f576000816000905550600101613887565b5090565b905600a165627a7a72305820b6f401a07ceef04983c30dbe91ce1ea6f4455b54389753bb5728fb054f889e830029",
  "source": "pragma solidity ^0.4.24;\n\ncontract WorkbenchBase {\n    event WorkbenchContractCreated(string applicationName, string workflowName, address originatingAddress);\n    event WorkbenchContractUpdated(string applicationName, string workflowName, string action, address originatingAddress);\n\n    string internal ApplicationName;\n    string internal WorkflowName;\n\n    constructor(string applicationName, string workflowName) internal {\n        ApplicationName = applicationName;\n        WorkflowName = workflowName;\n    }\n\n    function ContractCreated() internal {\n        emit WorkbenchContractCreated(ApplicationName, WorkflowName, msg.sender);\n    }\n\n    function ContractUpdated(string action) internal {\n        emit WorkbenchContractUpdated(ApplicationName, WorkflowName, action, msg.sender);\n    }\n}\n\ncontract SupplyChainTransportation is WorkbenchBase(\"SupplyChainTransportation\", \"SupplyChainTransportation\")\n{\n    enum StateType { BeginTrade, ExportClearance, ShipmentInitiation, ShipmentBoarding, TransferBillOfLading, ShipmentInTransit, ImportClearance, RecoverShipment, ShipmentDelivery, ShipmentFinalize, ShipmentComplete, Terminated }\n    uint[] lastAction;\n    bool public Killed;\n    address public InstanceShipper;\n    string public Description;\n    StateType public State;\n    StateType[] stateHistory;\n\n    address public InstanceFreightCarrier;\n    address public InstanceOriginCustoms;\n    address public InstanceDrayageAgent;\n    address public InstanceDestinationCustomsBroker;\n    address public InstanceDestinationCustoms;\n    address public InstanceConsignee;\n\n    string public Seller;\n    string public PortOfDischarge;\n    string public OriginBank;\n    string public ExportDocument;\n    string public CustomsDocument;\n    string public ShippingDocuments;\n    string public DraftBillOfLadingDocument;\n    string public FinalBillOfLadingDocument;\n    string public ReleaseOrderDocument;\n    string public DeliveryOrderDocument;\n\n    constructor(address creator, string description, address freightCarrier, address originCustoms, address consignee) public{\n        InstanceShipper = creator;\n        Description = description;\n        State = StateType.BeginTrade;\n        InstanceFreightCarrier = freightCarrier;\n        InstanceOriginCustoms = originCustoms;\n        InstanceConsignee = consignee;\n        lastAction.push(now);\n        stateHistory.push(State);\n        ContractCreated();\n    }\n\n    function Terminate() public{\n        if (State == StateType.ExportClearance) \n        {\n            require(msg.sender == InstanceOriginCustoms);\n        }\n        else if (State == StateType.ImportClearance) \n        {\n            require(msg.sender == InstanceDestinationCustoms);\n        }\n        else if (State == StateType.ShipmentFinalize) \n        {\n            require(msg.sender == InstanceConsignee);\n        }\n        State = StateType.Terminated;\n        lastAction.push(now);\n        stateHistory.push(State);\n        ContractUpdated('Terminate');\n    }\n\n\n    function ApproveExportDocumentation() public\n    {\n        if(State == StateType.ExportClearance)\n        {\n            require(msg.sender == InstanceOriginCustoms);\n            State = StateType.ShipmentInitiation;\n            lastAction.push(now);\n            stateHistory.push(State);\n        }\n        else\n        {\n            revert();\n        }\n\n        ContractUpdated('ApproveExportDocumentation');\n    }\n\n    function SendDeliveryOrderForConsigneeSignature() public\n    {\n        if(State == StateType.ShipmentDelivery)\n        {\n            require(msg.sender == InstanceDrayageAgent);\n            State = StateType.ShipmentFinalize;\n            lastAction.push(now);\n            stateHistory.push(State);\n        }\n        else\n        {\n            revert();\n        }\n\n        ContractUpdated('SendDeliveryOrderForConsigneeSignature');\n    }\n\n    function ApproveDelivery() public\n    {\n        if(State == StateType.ShipmentFinalize)\n        {\n            require(msg.sender == InstanceConsignee);\n            State = StateType.ShipmentComplete;\n            lastAction.push(now);\n            stateHistory.push(State);\n        }\n        else\n        {\n            revert();\n        }\n\n        ContractUpdated('ApproveDelivery');\n    }\n\n    function AmendExportDocumentation() public\n    {\n        if(State == StateType.ExportClearance)\n        {\n            require(msg.sender == InstanceOriginCustoms);\n            State = StateType.BeginTrade;\n            lastAction.push(now);\n            stateHistory.push(State);\n        }\n        else\n        {\n            revert();\n        }\n\n        ContractUpdated('AmendExportDocumentation');\n    }\n    \n    function AmendBillOfLading() public\n    {\n        if(State == StateType.ShipmentBoarding)\n        {\n            require(msg.sender == InstanceFreightCarrier);\n            State = StateType.ShipmentInitiation;\n            lastAction.push(now);\n            stateHistory.push(State);\n        }\n        else\n        {\n            revert();\n        }\n\n        ContractUpdated('AmendBillOfLading');\n    }\n\n    function AmendImportDocuments() public\n    {\n        if(State == StateType.ImportClearance)\n        {\n            require(msg.sender == InstanceDestinationCustoms);\n            State = StateType.ShipmentInTransit;\n            lastAction.push(now);\n            stateHistory.push(State);\n        }\n        else\n        {\n            revert();\n        }\n\n        ContractUpdated('AmendImportDocuments');\n    }\n\n    function ExportClearance (string seller, string portOfDischarge, string originBank, string exportDocument, string customsDocument) public \n    {\n        require(State == StateType.BeginTrade);\n        require(msg.sender == InstanceShipper);\n       \n        Seller = seller;\n        PortOfDischarge = portOfDischarge;\n        OriginBank = originBank;\n        ExportDocument = exportDocument;\n        CustomsDocument = customsDocument;\n\n        State = StateType.ExportClearance;\n        lastAction.push(now);\n        stateHistory.push(State);\n        ContractUpdated(\"ExportClearance\");\n    }\n\n    function UploadShippingDocuments(string shippingDocuments, string draftBillOfLadingDocument) public\n    {\n        require(State == StateType.ShipmentInitiation);\n        require(msg.sender == InstanceShipper);\n\n        ShippingDocuments = shippingDocuments;\n        DraftBillOfLadingDocument = draftBillOfLadingDocument;\n\n        State = StateType.ShipmentBoarding;\n        lastAction.push(now);\n        stateHistory.push(State);\n        ContractUpdated(\"UploadShippingDocuments\");\n    }\n\n    function UploadFinalBillOfLading(string finalBillOfLadingDocument) public\n    {\n        require(State == StateType.ShipmentBoarding);\n        require(msg.sender == InstanceFreightCarrier);\n\n        FinalBillOfLadingDocument = finalBillOfLadingDocument;\n        State = StateType.TransferBillOfLading;\n        lastAction.push(now);\n        stateHistory.push(State);\n        ContractUpdated(\"UploadFinalBillOfLading\");\n    }\n\n    function TransferBillOfLading(address destinationCustomsBroker, address destinationCustoms) public {\n        require(State == StateType.TransferBillOfLading);\n        require(msg.sender == InstanceFreightCarrier);\n      \n        InstanceDestinationCustomsBroker = destinationCustomsBroker;\n        InstanceDestinationCustoms = destinationCustoms;\n      \n        State = StateType.ShipmentInTransit;\n        lastAction.push(now);\n        stateHistory.push(State);\n        ContractUpdated(\"TransferBillOfLading\");\n    }\n\n    function SendBillOfLadingToCustoms(address drayageAgent) public {\n        require(State == StateType.ShipmentInTransit);\n        require(msg.sender == InstanceDestinationCustomsBroker);\n        \n        InstanceDrayageAgent = drayageAgent;\n        \n        State = StateType.ImportClearance;\n        lastAction.push(now);\n        stateHistory.push(State);\n        ContractUpdated(\"SendBillOfLadingToCustoms\");\n    }\n\n    function SendReleaseOrder(string releaseOrderDocument) public\n    {\n        require(State == StateType.ImportClearance);\n        require(msg.sender == InstanceDestinationCustoms);\n\n        ReleaseOrderDocument = releaseOrderDocument;\n\n        State = StateType.RecoverShipment;\n        lastAction.push(now);\n        stateHistory.push(State);\n        ContractUpdated(\"SendReleaseOrder\");\n    }\n\n    function SendDeliveryOrder(string deliveryOrderDocument) public\n    {\n        require(State == StateType.RecoverShipment);\n        require(msg.sender == InstanceDestinationCustomsBroker);\n\n        DeliveryOrderDocument = deliveryOrderDocument;\n\n        State = StateType.ShipmentDelivery;\n        lastAction.push(now);\n        stateHistory.push(State);\n        ContractUpdated(\"SendDeliveryOrder\");\n    }\n    \n    function getMetaData() view public returns(bool _killed, string _Description, StateType _State, uint timeSinceLastAction, uint[] _lastAction, StateType[] _stateHistory)\n    {\n        _killed = Killed;\n        _Description = Description;\n        _State = State;\n        timeSinceLastAction = now - lastAction[lastAction.length-1];\n        _lastAction = lastAction;\n        _stateHistory = stateHistory;\n    }\n\n    function getAllAddress() view public returns(address, address, address, address, address, address){\n        return (InstanceOriginCustoms, InstanceFreightCarrier, InstanceDestinationCustoms, InstanceDestinationCustomsBroker, InstanceDrayageAgent, InstanceConsignee);\n    }\n\n    function kill() public\n    // destroy contract\n    {\n        require(State == StateType.Terminated || State == StateType.ShipmentComplete);\n        require(msg.sender == InstanceShipper);\n        require(!Killed);\n        Killed = true;\n        selfdestruct(InstanceShipper);\n    }\n}\n",
  "sourcePath": "/media/pyofey/DATA/Coding/Web/2018_10_29_azure_truffle/contracts/SupplyChainTransportation.sol",
  "compiler": {
    "name": "solc",
    "version": "0.4.24+commit.e67f0147.Emscripten.clang"
  },
  "schemaVersion": "3.0.6",
  "updatedAt": "2019-05-28T21:36:41.814Z",
  "devdoc": {
    "methods": {}
  },
  "userdoc": {
    "methods": {}
  }
}