{
  "contractName": "SupplyChainTransportation",
  "abi": [
    {
      "constant": true,
      "inputs": [],
      "name": "Seller",
      "outputs": [
        {
          "name": "",
          "type": "string"
        }
      ],
      "payable": false,
      "stateMutability": "view",
      "type": "function"
    },
    {
      "constant": true,
      "inputs": [],
      "name": "Killed",
      "outputs": [
        {
          "name": "",
          "type": "bool"
        }
      ],
      "payable": false,
      "stateMutability": "view",
      "type": "function"
    },
    {
      "constant": true,
      "inputs": [],
      "name": "ShippingDocuments",
      "outputs": [
        {
          "name": "",
          "type": "string"
        }
      ],
      "payable": false,
      "stateMutability": "view",
      "type": "function"
    },
    {
      "constant": true,
      "inputs": [],
      "name": "DraftBillOfLadingDocument",
      "outputs": [
        {
          "name": "",
          "type": "string"
        }
      ],
      "payable": false,
      "stateMutability": "view",
      "type": "function"
    },
    {
      "constant": true,
      "inputs": [],
      "name": "ExportDocument",
      "outputs": [
        {
          "name": "",
          "type": "string"
        }
      ],
      "payable": false,
      "stateMutability": "view",
      "type": "function"
    },
    {
      "constant": true,
      "inputs": [],
      "name": "ReleaseOrderDocument",
      "outputs": [
        {
          "name": "",
          "type": "string"
        }
      ],
      "payable": false,
      "stateMutability": "view",
      "type": "function"
    },
    {
      "constant": true,
      "inputs": [],
      "name": "FinalBillOfLadingDocument",
      "outputs": [
        {
          "name": "",
          "type": "string"
        }
      ],
      "payable": false,
      "stateMutability": "view",
      "type": "function"
    },
    {
      "constant": true,
      "inputs": [],
      "name": "CustomsDocument",
      "outputs": [
        {
          "name": "",
          "type": "string"
        }
      ],
      "payable": false,
      "stateMutability": "view",
      "type": "function"
    },
    {
      "constant": true,
      "inputs": [],
      "name": "Description",
      "outputs": [
        {
          "name": "",
          "type": "string"
        }
      ],
      "payable": false,
      "stateMutability": "view",
      "type": "function"
    },
    {
      "constant": true,
      "inputs": [],
      "name": "InstanceDestinationCustomsBroker",
      "outputs": [
        {
          "name": "",
          "type": "address"
        }
      ],
      "payable": false,
      "stateMutability": "view",
      "type": "function"
    },
    {
      "constant": true,
      "inputs": [],
      "name": "InstanceConsignee",
      "outputs": [
        {
          "name": "",
          "type": "address"
        }
      ],
      "payable": false,
      "stateMutability": "view",
      "type": "function"
    },
    {
      "constant": true,
      "inputs": [],
      "name": "InstanceDrayageAgent",
      "outputs": [
        {
          "name": "",
          "type": "address"
        }
      ],
      "payable": false,
      "stateMutability": "view",
      "type": "function"
    },
    {
      "constant": true,
      "inputs": [],
      "name": "InstanceFreightCarrier",
      "outputs": [
        {
          "name": "",
          "type": "address"
        }
      ],
      "payable": false,
      "stateMutability": "view",
      "type": "function"
    },
    {
      "constant": true,
      "inputs": [],
      "name": "PortOfDischarge",
      "outputs": [
        {
          "name": "",
          "type": "string"
        }
      ],
      "payable": false,
      "stateMutability": "view",
      "type": "function"
    },
    {
      "constant": true,
      "inputs": [],
      "name": "DeliveryOrderDocument",
      "outputs": [
        {
          "name": "",
          "type": "string"
        }
      ],
      "payable": false,
      "stateMutability": "view",
      "type": "function"
    },
    {
      "constant": true,
      "inputs": [],
      "name": "OriginBank",
      "outputs": [
        {
          "name": "",
          "type": "string"
        }
      ],
      "payable": false,
      "stateMutability": "view",
      "type": "function"
    },
    {
      "constant": true,
      "inputs": [],
      "name": "State",
      "outputs": [
        {
          "name": "",
          "type": "uint8"
        }
      ],
      "payable": false,
      "stateMutability": "view",
      "type": "function"
    },
    {
      "constant": true,
      "inputs": [],
      "name": "InstanceOriginCustoms",
      "outputs": [
        {
          "name": "",
          "type": "address"
        }
      ],
      "payable": false,
      "stateMutability": "view",
      "type": "function"
    },
    {
      "constant": true,
      "inputs": [],
      "name": "InstanceDestinationCustoms",
      "outputs": [
        {
          "name": "",
          "type": "address"
        }
      ],
      "payable": false,
      "stateMutability": "view",
      "type": "function"
    },
    {
      "constant": true,
      "inputs": [],
      "name": "InstanceShipper",
      "outputs": [
        {
          "name": "",
          "type": "address"
        }
      ],
      "payable": false,
      "stateMutability": "view",
      "type": "function"
    },
    {
      "inputs": [
        {
          "name": "creator",
          "type": "address"
        },
        {
          "name": "description",
          "type": "string"
        },
        {
          "name": "freightCarrier",
          "type": "address"
        },
        {
          "name": "originCustoms",
          "type": "address"
        },
        {
          "name": "consignee",
          "type": "address"
        }
      ],
      "payable": false,
      "stateMutability": "nonpayable",
      "type": "constructor"
    },
    {
      "anonymous": false,
      "inputs": [
        {
          "indexed": false,
          "name": "applicationName",
          "type": "string"
        },
        {
          "indexed": false,
          "name": "workflowName",
          "type": "string"
        },
        {
          "indexed": false,
          "name": "originatingAddress",
          "type": "address"
        }
      ],
      "name": "WorkbenchContractCreated",
      "type": "event"
    },
    {
      "anonymous": false,
      "inputs": [
        {
          "indexed": false,
          "name": "applicationName",
          "type": "string"
        },
        {
          "indexed": false,
          "name": "workflowName",
          "type": "string"
        },
        {
          "indexed": false,
          "name": "action",
          "type": "string"
        },
        {
          "indexed": false,
          "name": "originatingAddress",
          "type": "address"
        }
      ],
      "name": "WorkbenchContractUpdated",
      "type": "event"
    },
    {
      "constant": false,
      "inputs": [],
      "name": "Terminate",
      "outputs": [],
      "payable": false,
      "stateMutability": "nonpayable",
      "type": "function"
    },
    {
      "constant": false,
      "inputs": [],
      "name": "ApproveExportDocumentation",
      "outputs": [],
      "payable": false,
      "stateMutability": "nonpayable",
      "type": "function"
    },
    {
      "constant": false,
      "inputs": [],
      "name": "SendDeliveryOrderForConsigneeSignature",
      "outputs": [],
      "payable": false,
      "stateMutability": "nonpayable",
      "type": "function"
    },
    {
      "constant": false,
      "inputs": [],
      "name": "ApproveDelivery",
      "outputs": [],
      "payable": false,
      "stateMutability": "nonpayable",
      "type": "function"
    },
    {
      "constant": false,
      "inputs": [],
      "name": "AmendExportDocumentation",
      "outputs": [],
      "payable": false,
      "stateMutability": "nonpayable",
      "type": "function"
    },
    {
      "constant": false,
      "inputs": [],
      "name": "AmendBillOfLading",
      "outputs": [],
      "payable": false,
      "stateMutability": "nonpayable",
      "type": "function"
    },
    {
      "constant": false,
      "inputs": [],
      "name": "AmendImportDocuments",
      "outputs": [],
      "payable": false,
      "stateMutability": "nonpayable",
      "type": "function"
    },
    {
      "constant": false,
      "inputs": [
        {
          "name": "seller",
          "type": "string"
        },
        {
          "name": "portOfDischarge",
          "type": "string"
        },
        {
          "name": "originBank",
          "type": "string"
        },
        {
          "name": "exportDocument",
          "type": "string"
        },
        {
          "name": "customsDocument",
          "type": "string"
        }
      ],
      "name": "ExportClearance",
      "outputs": [],
      "payable": false,
      "stateMutability": "nonpayable",
      "type": "function"
    },
    {
      "constant": false,
      "inputs": [
        {
          "name": "shippingDocuments",
          "type": "string"
        },
        {
          "name": "draftBillOfLadingDocument",
          "type": "string"
        }
      ],
      "name": "UploadShippingDocuments",
      "outputs": [],
      "payable": false,
      "stateMutability": "nonpayable",
      "type": "function"
    },
    {
      "constant": false,
      "inputs": [
        {
          "name": "finalBillOfLadingDocument",
          "type": "string"
        }
      ],
      "name": "UploadFinalBillOfLading",
      "outputs": [],
      "payable": false,
      "stateMutability": "nonpayable",
      "type": "function"
    },
    {
      "constant": false,
      "inputs": [
        {
          "name": "destinationCustomsBroker",
          "type": "address"
        },
        {
          "name": "destinationCustoms",
          "type": "address"
        }
      ],
      "name": "TransferBillOfLading",
      "outputs": [],
      "payable": false,
      "stateMutability": "nonpayable",
      "type": "function"
    },
    {
      "constant": false,
      "inputs": [
        {
          "name": "drayageAgent",
          "type": "address"
        }
      ],
      "name": "SendBillOfLadingToCustoms",
      "outputs": [],
      "payable": false,
      "stateMutability": "nonpayable",
      "type": "function"
    },
    {
      "constant": false,
      "inputs": [
        {
          "name": "releaseOrderDocument",
          "type": "string"
        }
      ],
      "name": "SendReleaseOrder",
      "outputs": [],
      "payable": false,
      "stateMutability": "nonpayable",
      "type": "function"
    },
    {
      "constant": false,
      "inputs": [
        {
          "name": "deliveryOrderDocument",
          "type": "string"
        }
      ],
      "name": "SendDeliveryOrder",
      "outputs": [],
      "payable": false,
      "stateMutability": "nonpayable",
      "type": "function"
    },
    {
      "constant": true,
      "inputs": [],
      "name": "getMetaData",
      "outputs": [
        {
          "name": "_killed",
          "type": "bool"
        },
        {
          "name": "_Description",
          "type": "string"
        },
        {
          "name": "_State",
          "type": "uint8"
        },
        {
          "name": "timeSinceLastAction",
          "type": "uint256"
        },
        {
          "name": "_lastAction",
          "type": "uint256[]"
        }
      ],
      "payable": false,
      "stateMutability": "view",
      "type": "function"
    },
    {
      "constant": false,
      "inputs": [],
      "name": "kill",
      "outputs": [],
      "payable": false,
      "stateMutability": "nonpayable",
      "type": "function"
    }
  ],
  "bytecode": "0x60806040523480156200001157600080fd5b506040516200355a3803806200355a83398101806040528101908080519060200190929190805182019291906020018051906020019092919080519060200190929190805190602001909291905050506040805190810160405280601981526020017f537570706c79436861696e5472616e73706f72746174696f6e000000000000008152506040805190810160405280601981526020017f537570706c79436861696e5472616e73706f72746174696f6e000000000000008152508160009080519060200190620000e592919062000416565b508060019080519060200190620000fe92919062000416565b50505084600360016101000a81548173ffffffffffffffffffffffffffffffffffffffff021916908373ffffffffffffffffffffffffffffffffffffffff16021790555083600490805190602001906200015a92919062000416565b506000600560006101000a81548160ff0219169083600b8111156200017b57fe5b021790555082600560016101000a81548173ffffffffffffffffffffffffffffffffffffffff021916908373ffffffffffffffffffffffffffffffffffffffff16021790555081600660006101000a81548173ffffffffffffffffffffffffffffffffffffffff021916908373ffffffffffffffffffffffffffffffffffffffff16021790555080600a60006101000a81548173ffffffffffffffffffffffffffffffffffffffff021916908373ffffffffffffffffffffffffffffffffffffffff16021790555060024290806001815401808255809150509060018203906000526020600020016000909192909190915055506200028862000293640100000000026401000000009004565b5050505050620004c5565b7f5164ff06e10737dceb282871701b28082988339e79ba9d49c6c9b0e00312982b60006001336040518080602001806020018473ffffffffffffffffffffffffffffffffffffffff1673ffffffffffffffffffffffffffffffffffffffff1681526020018381038352868181546001816001161561010002031660029004815260200191508054600181600116156101000203166002900480156200037c5780601f1062000350576101008083540402835291602001916200037c565b820191906000526020600020905b8154815290600101906020018083116200035e57829003601f168201915b5050838103825285818154600181600116156101000203166002900481526020019150805460018160011615610100020316600290048015620004035780601f10620003d75761010080835404028352916020019162000403565b820191906000526020600020905b815481529060010190602001808311620003e557829003601f168201915b50509550505050505060405180910390a1565b828054600181600116156101000203166002900490600052602060002090601f016020900481019282601f106200045957805160ff19168380011785556200048a565b828001600101855582156200048a579182015b82811115620004895782518255916020019190600101906200046c565b5b5090506200049991906200049d565b5090565b620004c291905b80821115620004be576000816000905550600101620004a4565b5090565b90565b61308580620004d56000396000f3006080604052600436106101c2576000357c0100000000000000000000000000000000000000000000000000000000900463ffffffff16806304c0a755146101c757806307fd3687146101de5780630838d2751461026e5780630f8eeedb14610285578063121e49cd146102b4578063131f00e91461034457806313ec4048146104c5578063387ac791146104dc5780633b2e3c9c146104f35780633be68526146105a257806341c0e1b5146105e55780634538d827146105fc578063495896191461068c57806351f69285146106f55780635f6d157714610785578063657f3b85146108155780636d596202146108a55780638191745f1461093557806385090ac7146109c557806389ffce5214610a1c578063911ee4a314610a735780639445eb3a14610aca5780639d98449b14610ae1578063a7585d2614610b38578063aedc2aa214610bc8578063b2b4a2d714610bdf578063b7f5ccb914610c6f578063b866519414610cd2578063d2786ba414610ce9578063da2939fb14610de8578063da955c6514610e78578063f1b6dccd14610ee1578063f34d64f814610f1a578063f5ec14cb14610f83578063f6c96e2d14610fda578063feeeeac014611031575b600080fd5b3480156101d357600080fd5b506101dc611088565b005b3480156101ea57600080fd5b506101f36111ac565b6040518080602001828103825283818151815260200191508051906020019080838360005b83811015610233578082015181840152602081019050610218565b50505050905090810190601f1680156102605780820380516001836020036101000a031916815260200191505b509250505060405180910390f35b34801561027a57600080fd5b5061028361124a565b005b34801561029157600080fd5b5061029a61136e565b604051808215151515815260200191505060405180910390f35b3480156102c057600080fd5b506102c9611381565b6040518080602001828103825283818151815260200191508051906020019080838360005b838110156103095780820151818401526020810190506102ee565b50505050905090810190601f1680156103365780820380516001836020036101000a031916815260200191505b509250505060405180910390f35b34801561035057600080fd5b506104c3600480360381019080803590602001908201803590602001908080601f0160208091040260200160405190810160405280939291908181526020018383808284378201915050505050509192919290803590602001908201803590602001908080601f0160208091040260200160405190810160405280939291908181526020018383808284378201915050505050509192919290803590602001908201803590602001908080601f0160208091040260200160405190810160405280939291908181526020018383808284378201915050505050509192919290803590602001908201803590602001908080601f0160208091040260200160405190810160405280939291908181526020018383808284378201915050505050509192919290803590602001908201803590602001908080601f016020809104026020016040519081016040528093929190818152602001838380828437820191505050505050919291929050505061141f565b005b3480156104d157600080fd5b506104da6115b7565b005b3480156104e857600080fd5b506104f16116da565b005b3480156104ff57600080fd5b506105a0600480360381019080803590602001908201803590602001908080601f0160208091040260200160405190810160405280939291908181526020018383808284378201915050505050509192919290803590602001908201803590602001908080601f01602080910402602001604051908101604052809392919081815260200183838082843782019150505050505091929192905050506117fe565b005b3480156105ae57600080fd5b506105e3600480360381019080803573ffffffffffffffffffffffffffffffffffffffff16906020019092919050505061194e565b005b3480156105f157600080fd5b506105fa611ab0565b005b34801561060857600080fd5b50610611611be1565b6040518080602001828103825283818151815260200191508051906020019080838360005b83811015610651578082015181840152602081019050610636565b50505050905090810190601f16801561067e5780820380516001836020036101000a031916815260200191505b509250505060405180910390f35b34801561069857600080fd5b506106f3600480360381019080803590602001908201803590602001908080601f0160208091040260200160405190810160405280939291908181526020018383808284378201915050505050509192919290505050611c7f565b005b34801561070157600080fd5b5061070a611db7565b6040518080602001828103825283818151815260200191508051906020019080838360005b8381101561074a57808201518184015260208101905061072f565b50505050905090810190601f1680156107775780820380516001836020036101000a031916815260200191505b509250505060405180910390f35b34801561079157600080fd5b5061079a611e55565b6040518080602001828103825283818151815260200191508051906020019080838360005b838110156107da5780820151818401526020810190506107bf565b50505050905090810190601f1680156108075780820380516001836020036101000a031916815260200191505b509250505060405180910390f35b34801561082157600080fd5b5061082a611ef3565b6040518080602001828103825283818151815260200191508051906020019080838360005b8381101561086a57808201518184015260208101905061084f565b50505050905090810190601f1680156108975780820380516001836020036101000a031916815260200191505b509250505060405180910390f35b3480156108b157600080fd5b506108ba611f91565b6040518080602001828103825283818151815260200191508051906020019080838360005b838110156108fa5780820151818401526020810190506108df565b50505050905090810190601f1680156109275780820380516001836020036101000a031916815260200191505b509250505060405180910390f35b34801561094157600080fd5b5061094a61202f565b6040518080602001828103825283818151815260200191508051906020019080838360005b8381101561098a57808201518184015260208101905061096f565b50505050905090810190601f1680156109b75780820380516001836020036101000a031916815260200191505b509250505060405180910390f35b3480156109d157600080fd5b506109da6120cd565b604051808273ffffffffffffffffffffffffffffffffffffffff1673ffffffffffffffffffffffffffffffffffffffff16815260200191505060405180910390f35b348015610a2857600080fd5b50610a316120f3565b604051808273ffffffffffffffffffffffffffffffffffffffff1673ffffffffffffffffffffffffffffffffffffffff16815260200191505060405180910390f35b348015610a7f57600080fd5b50610a88612119565b604051808273ffffffffffffffffffffffffffffffffffffffff1673ffffffffffffffffffffffffffffffffffffffff16815260200191505060405180910390f35b348015610ad657600080fd5b50610adf61213f565b005b348015610aed57600080fd5b50610af661237a565b604051808273ffffffffffffffffffffffffffffffffffffffff1673ffffffffffffffffffffffffffffffffffffffff16815260200191505060405180910390f35b348015610b4457600080fd5b50610b4d6123a0565b6040518080602001828103825283818151815260200191508051906020019080838360005b83811015610b8d578082015181840152602081019050610b72565b50505050905090810190601f168015610bba5780820380516001836020036101000a031916815260200191505b509250505060405180910390f35b348015610bd457600080fd5b50610bdd61243e565b005b348015610beb57600080fd5b50610bf4612589565b6040518080602001828103825283818151815260200191508051906020019080838360005b83811015610c34578082015181840152602081019050610c19565b50505050905090810190601f168015610c615780820380516001836020036101000a031916815260200191505b509250505060405180910390f35b348015610c7b57600080fd5b50610cd0600480360381019080803573ffffffffffffffffffffffffffffffffffffffff169060200190929190803573ffffffffffffffffffffffffffffffffffffffff169060200190929190505050612627565b005b348015610cde57600080fd5b50610ce76127ca565b005b348015610cf557600080fd5b50610cfe6128ee565b60405180861515151581526020018060200185600b811115610d1c57fe5b60ff16815260200184815260200180602001838103835287818151815260200191508051906020019080838360005b83811015610d66578082015181840152602081019050610d4b565b50505050905090810190601f168015610d935780820380516001836020036101000a031916815260200191505b50838103825284818151815260200191508051906020019060200280838360005b83811015610dcf578082015181840152602081019050610db4565b5050505090500197505050505050505060405180910390f35b348015610df457600080fd5b50610dfd612a38565b6040518080602001828103825283818151815260200191508051906020019080838360005b83811015610e3d578082015181840152602081019050610e22565b50505050905090810190601f168015610e6a5780820380516001836020036101000a031916815260200191505b509250505060405180910390f35b348015610e8457600080fd5b50610edf600480360381019080803590602001908201803590602001908080601f0160208091040260200160405190810160405280939291908181526020018383808284378201915050505050509192919290505050612ad6565b005b348015610eed57600080fd5b50610ef6612c0e565b6040518082600b811115610f0657fe5b60ff16815260200191505060405180910390f35b348015610f2657600080fd5b50610f81600480360381019080803590602001908201803590602001908080601f0160208091040260200160405190810160405280939291908181526020018383808284378201915050505050509192919290505050612c21565b005b348015610f8f57600080fd5b50610f98612d59565b604051808273ffffffffffffffffffffffffffffffffffffffff1673ffffffffffffffffffffffffffffffffffffffff16815260200191505060405180910390f35b348015610fe657600080fd5b50610fef612d7f565b604051808273ffffffffffffffffffffffffffffffffffffffff1673ffffffffffffffffffffffffffffffffffffffff16815260200191505060405180910390f35b34801561103d57600080fd5b50611046612da5565b604051808273ffffffffffffffffffffffffffffffffffffffff1673ffffffffffffffffffffffffffffffffffffffff16815260200191505060405180910390f35b6003600b81111561109557fe5b600560009054906101000a900460ff16600b8111156110b057fe5b141561116757600560019054906101000a900473ffffffffffffffffffffffffffffffffffffffff1673ffffffffffffffffffffffffffffffffffffffff163373ffffffffffffffffffffffffffffffffffffffff1614151561111257600080fd5b6002600560006101000a81548160ff0219169083600b81111561113157fe5b0217905550600242908060018154018082558091505090600182039060005260206000200160009091929091909150555061116c565b600080fd5b6111aa6040805190810160405280601181526020017f416d656e6442696c6c4f664c6164696e67000000000000000000000000000000815250612dcb565b565b600b8054600181600116156101000203166002900480601f0160208091040260200160405190810160405280929190818152602001828054600181600116156101000203166002900480156112425780601f1061121757610100808354040283529160200191611242565b820191906000526020600020905b81548152906001019060200180831161122557829003601f168201915b505050505081565b6009600b81111561125757fe5b600560009054906101000a900460ff16600b81111561127257fe5b141561132957600a60009054906101000a900473ffffffffffffffffffffffffffffffffffffffff1673ffffffffffffffffffffffffffffffffffffffff163373ffffffffffffffffffffffffffffffffffffffff161415156112d457600080fd5b600a600560006101000a81548160ff0219169083600b8111156112f357fe5b0217905550600242908060018154018082558091505090600182039060005260206000200160009091929091909150555061132e565b600080fd5b61136c6040805190810160405280600f81526020017f417070726f766544656c69766572790000000000000000000000000000000000815250612dcb565b565b600360009054906101000a900460ff1681565b60108054600181600116156101000203166002900480601f0160208091040260200160405190810160405280929190818152602001828054600181600116156101000203166002900480156114175780601f106113ec57610100808354040283529160200191611417565b820191906000526020600020905b8154815290600101906020018083116113fa57829003601f168201915b505050505081565b6000600b81111561142c57fe5b600560009054906101000a900460ff16600b81111561144757fe5b14151561145357600080fd5b600360019054906101000a900473ffffffffffffffffffffffffffffffffffffffff1673ffffffffffffffffffffffffffffffffffffffff163373ffffffffffffffffffffffffffffffffffffffff161415156114af57600080fd5b84600b90805190602001906114c5929190612fb4565b5083600c90805190602001906114dc929190612fb4565b5082600d90805190602001906114f3929190612fb4565b5081600e908051906020019061150a929190612fb4565b5080600f9080519060200190611521929190612fb4565b506001600560006101000a81548160ff0219169083600b81111561154157fe5b021790555060024290806001815401808255809150509060018203906000526020600020016000909192909190915055506115b06040805190810160405280600f81526020017f4578706f7274436c656172616e63650000000000000000000000000000000000815250612dcb565b5050505050565b6006600b8111156115c457fe5b600560009054906101000a900460ff16600b8111156115df57fe5b141561169557600960009054906101000a900473ffffffffffffffffffffffffffffffffffffffff1673ffffffffffffffffffffffffffffffffffffffff163373ffffffffffffffffffffffffffffffffffffffff1614151561164157600080fd5b60058060006101000a81548160ff0219169083600b81111561165f57fe5b0217905550600242908060018154018082558091505090600182039060005260206000200160009091929091909150555061169a565b600080fd5b6116d86040805190810160405280601481526020017f416d656e64496d706f7274446f63756d656e7473000000000000000000000000815250612dcb565b565b6001600b8111156116e757fe5b600560009054906101000a900460ff16600b81111561170257fe5b14156117b957600660009054906101000a900473ffffffffffffffffffffffffffffffffffffffff1673ffffffffffffffffffffffffffffffffffffffff163373ffffffffffffffffffffffffffffffffffffffff1614151561176457600080fd5b6002600560006101000a81548160ff0219169083600b81111561178357fe5b021790555060024290806001815401808255809150509060018203906000526020600020016000909192909190915055506117be565b600080fd5b6117fc6040805190810160405280601a81526020017f417070726f76654578706f7274446f63756d656e746174696f6e000000000000815250612dcb565b565b6002600b81111561180b57fe5b600560009054906101000a900460ff16600b81111561182657fe5b14151561183257600080fd5b600360019054906101000a900473ffffffffffffffffffffffffffffffffffffffff1673ffffffffffffffffffffffffffffffffffffffff163373ffffffffffffffffffffffffffffffffffffffff1614151561188e57600080fd5b81601090805190602001906118a4929190612fb4565b5080601190805190602001906118bb929190612fb4565b506003600560006101000a81548160ff0219169083600b8111156118db57fe5b0217905550600242908060018154018082558091505090600182039060005260206000200160009091929091909150555061194a6040805190810160405280601781526020017f55706c6f61645368697070696e67446f63756d656e7473000000000000000000815250612dcb565b5050565b6005600b81111561195b57fe5b600560009054906101000a900460ff16600b81111561197657fe5b14151561198257600080fd5b600860009054906101000a900473ffffffffffffffffffffffffffffffffffffffff1673ffffffffffffffffffffffffffffffffffffffff163373ffffffffffffffffffffffffffffffffffffffff161415156119de57600080fd5b80600760006101000a81548173ffffffffffffffffffffffffffffffffffffffff021916908373ffffffffffffffffffffffffffffffffffffffff1602179055506006600560006101000a81548160ff0219169083600b811115611a3e57fe5b02179055506002429080600181540180825580915050906001820390600052602060002001600090919290919091505550611aad6040805190810160405280601981526020017f53656e6442696c6c4f664c6164696e67546f437573746f6d7300000000000000815250612dcb565b50565b600b80811115611abc57fe5b600560009054906101000a900460ff16600b811115611ad757fe5b1480611b085750600a600b811115611aeb57fe5b600560009054906101000a900460ff16600b811115611b0657fe5b145b1515611b1357600080fd5b600360019054906101000a900473ffffffffffffffffffffffffffffffffffffffff1673ffffffffffffffffffffffffffffffffffffffff163373ffffffffffffffffffffffffffffffffffffffff16141515611b6f57600080fd5b600360009054906101000a900460ff16151515611b8b57600080fd5b6001600360006101000a81548160ff021916908315150217905550600360019054906101000a900473ffffffffffffffffffffffffffffffffffffffff1673ffffffffffffffffffffffffffffffffffffffff16ff5b60118054600181600116156101000203166002900480601f016020809104026020016040519081016040528092919081815260200182805460018160011615610100020316600290048015611c775780601f10611c4c57610100808354040283529160200191611c77565b820191906000526020600020905b815481529060010190602001808311611c5a57829003601f168201915b505050505081565b6003600b811115611c8c57fe5b600560009054906101000a900460ff16600b811115611ca757fe5b141515611cb357600080fd5b600560019054906101000a900473ffffffffffffffffffffffffffffffffffffffff1673ffffffffffffffffffffffffffffffffffffffff163373ffffffffffffffffffffffffffffffffffffffff16141515611d0f57600080fd5b8060129080519060200190611d25929190612fb4565b506004600560006101000a81548160ff0219169083600b811115611d4557fe5b02179055506002429080600181540180825580915050906001820390600052602060002001600090919290919091505550611db46040805190810160405280601781526020017f55706c6f616446696e616c42696c6c4f664c6164696e67000000000000000000815250612dcb565b50565b600e8054600181600116156101000203166002900480601f016020809104026020016040519081016040528092919081815260200182805460018160011615610100020316600290048015611e4d5780601f10611e2257610100808354040283529160200191611e4d565b820191906000526020600020905b815481529060010190602001808311611e3057829003601f168201915b505050505081565b60138054600181600116156101000203166002900480601f016020809104026020016040519081016040528092919081815260200182805460018160011615610100020316600290048015611eeb5780601f10611ec057610100808354040283529160200191611eeb565b820191906000526020600020905b815481529060010190602001808311611ece57829003601f168201915b505050505081565b60128054600181600116156101000203166002900480601f016020809104026020016040519081016040528092919081815260200182805460018160011615610100020316600290048015611f895780601f10611f5e57610100808354040283529160200191611f89565b820191906000526020600020905b815481529060010190602001808311611f6c57829003601f168201915b505050505081565b600f8054600181600116156101000203166002900480601f0160208091040260200160405190810160405280929190818152602001828054600181600116156101000203166002900480156120275780601f10611ffc57610100808354040283529160200191612027565b820191906000526020600020905b81548152906001019060200180831161200a57829003601f168201915b505050505081565b60048054600181600116156101000203166002900480601f0160208091040260200160405190810160405280929190818152602001828054600181600116156101000203166002900480156120c55780601f1061209a576101008083540402835291602001916120c5565b820191906000526020600020905b8154815290600101906020018083116120a857829003601f168201915b505050505081565b600860009054906101000a900473ffffffffffffffffffffffffffffffffffffffff1681565b600a60009054906101000a900473ffffffffffffffffffffffffffffffffffffffff1681565b600760009054906101000a900473ffffffffffffffffffffffffffffffffffffffff1681565b6001600b81111561214c57fe5b600560009054906101000a900460ff16600b81111561216757fe5b14156121ce57600660009054906101000a900473ffffffffffffffffffffffffffffffffffffffff1673ffffffffffffffffffffffffffffffffffffffff163373ffffffffffffffffffffffffffffffffffffffff161415156121c957600080fd5b6122ea565b6006600b8111156121db57fe5b600560009054906101000a900460ff16600b8111156121f657fe5b141561225d57600960009054906101000a900473ffffffffffffffffffffffffffffffffffffffff1673ffffffffffffffffffffffffffffffffffffffff163373ffffffffffffffffffffffffffffffffffffffff1614151561225857600080fd5b6122e9565b6009600b81111561226a57fe5b600560009054906101000a900460ff16600b81111561228557fe5b14156122e857600a60009054906101000a900473ffffffffffffffffffffffffffffffffffffffff1673ffffffffffffffffffffffffffffffffffffffff163373ffffffffffffffffffffffffffffffffffffffff161415156122e757600080fd5b5b5b5b600b600560006101000a81548160ff0219169083600b81111561230957fe5b021790555060024290806001815401808255809150509060018203906000526020600020016000909192909190915055506123786040805190810160405280600981526020017f5465726d696e6174650000000000000000000000000000000000000000000000815250612dcb565b565b600560019054906101000a900473ffffffffffffffffffffffffffffffffffffffff1681565b600c8054600181600116156101000203166002900480601f0160208091040260200160405190810160405280929190818152602001828054600181600116156101000203166002900480156124365780601f1061240b57610100808354040283529160200191612436565b820191906000526020600020905b81548152906001019060200180831161241957829003601f168201915b505050505081565b6008600b81111561244b57fe5b600560009054906101000a900460ff16600b81111561246657fe5b141561251d57600760009054906101000a900473ffffffffffffffffffffffffffffffffffffffff1673ffffffffffffffffffffffffffffffffffffffff163373ffffffffffffffffffffffffffffffffffffffff161415156124c857600080fd5b6009600560006101000a81548160ff0219169083600b8111156124e757fe5b02179055506002429080600181540180825580915050906001820390600052602060002001600090919290919091505550612522565b600080fd5b612587606060405190810160405280602681526020017f53656e6444656c69766572794f72646572466f72436f6e7369676e656553696781526020017f6e61747572650000000000000000000000000000000000000000000000000000815250612dcb565b565b60148054600181600116156101000203166002900480601f01602080910402602001604051908101604052809291908181526020018280546001816001161561010002031660029004801561261f5780601f106125f45761010080835404028352916020019161261f565b820191906000526020600020905b81548152906001019060200180831161260257829003601f168201915b505050505081565b6004600b81111561263457fe5b600560009054906101000a900460ff16600b81111561264f57fe5b14151561265b57600080fd5b600360019054906101000a900473ffffffffffffffffffffffffffffffffffffffff1673ffffffffffffffffffffffffffffffffffffffff163373ffffffffffffffffffffffffffffffffffffffff161415156126b757600080fd5b81600860006101000a81548173ffffffffffffffffffffffffffffffffffffffff021916908373ffffffffffffffffffffffffffffffffffffffff16021790555080600960006101000a81548173ffffffffffffffffffffffffffffffffffffffff021916908373ffffffffffffffffffffffffffffffffffffffff16021790555060058060006101000a81548160ff0219169083600b81111561275757fe5b021790555060024290806001815401808255809150509060018203906000526020600020016000909192909190915055506127c66040805190810160405280601481526020017f5472616e7366657242696c6c4f664c6164696e67000000000000000000000000815250612dcb565b5050565b6001600b8111156127d757fe5b600560009054906101000a900460ff16600b8111156127f257fe5b14156128a957600660009054906101000a900473ffffffffffffffffffffffffffffffffffffffff1673ffffffffffffffffffffffffffffffffffffffff163373ffffffffffffffffffffffffffffffffffffffff1614151561285457600080fd5b6000600560006101000a81548160ff0219169083600b81111561287357fe5b021790555060024290806001815401808255809150509060018203906000526020600020016000909192909190915055506128ae565b600080fd5b6128ec6040805190810160405280601881526020017f416d656e644578706f7274446f63756d656e746174696f6e0000000000000000815250612dcb565b565b600060606000806060600360009054906101000a900460ff16945060048054600181600116156101000203166002900480601f01602080910402602001604051908101604052809291908181526020018280546001816001161561010002031660029004801561299f5780601f106129745761010080835404028352916020019161299f565b820191906000526020600020905b81548152906001019060200180831161298257829003601f168201915b50505050509350600560009054906101000a900460ff16925060026001600280549050038154811015156129cf57fe5b9060005260206000200154420391506002805480602002602001604051908101604052809291908181526020018280548015612a2a57602002820191906000526020600020905b815481526020019060010190808311612a16575b505050505090509091929394565b600d8054600181600116156101000203166002900480601f016020809104026020016040519081016040528092919081815260200182805460018160011615610100020316600290048015612ace5780601f10612aa357610100808354040283529160200191612ace565b820191906000526020600020905b815481529060010190602001808311612ab157829003601f168201915b505050505081565b6006600b811115612ae357fe5b600560009054906101000a900460ff16600b811115612afe57fe5b141515612b0a57600080fd5b600960009054906101000a900473ffffffffffffffffffffffffffffffffffffffff1673ffffffffffffffffffffffffffffffffffffffff163373ffffffffffffffffffffffffffffffffffffffff16141515612b6657600080fd5b8060139080519060200190612b7c929190612fb4565b506007600560006101000a81548160ff0219169083600b811115612b9c57fe5b02179055506002429080600181540180825580915050906001820390600052602060002001600090919290919091505550612c0b6040805190810160405280601081526020017f53656e6452656c656173654f7264657200000000000000000000000000000000815250612dcb565b50565b600560009054906101000a900460ff1681565b6007600b811115612c2e57fe5b600560009054906101000a900460ff16600b811115612c4957fe5b141515612c5557600080fd5b600860009054906101000a900473ffffffffffffffffffffffffffffffffffffffff1673ffffffffffffffffffffffffffffffffffffffff163373ffffffffffffffffffffffffffffffffffffffff16141515612cb157600080fd5b8060149080519060200190612cc7929190612fb4565b506008600560006101000a81548160ff0219169083600b811115612ce757fe5b02179055506002429080600181540180825580915050906001820390600052602060002001600090919290919091505550612d566040805190810160405280601181526020017f53656e6444656c69766572794f72646572000000000000000000000000000000815250612dcb565b50565b600660009054906101000a900473ffffffffffffffffffffffffffffffffffffffff1681565b600960009054906101000a900473ffffffffffffffffffffffffffffffffffffffff1681565b600360019054906101000a900473ffffffffffffffffffffffffffffffffffffffff1681565b7fa13bd79f323c399d36191e886ded389c940ccd7e6dd744d1505943592fb2b433600060018333604051808060200180602001806020018573ffffffffffffffffffffffffffffffffffffffff1673ffffffffffffffffffffffffffffffffffffffff168152602001848103845288818154600181600116156101000203166002900481526020019150805460018160011615610100020316600290048015612eb55780601f10612e8a57610100808354040283529160200191612eb5565b820191906000526020600020905b815481529060010190602001808311612e9857829003601f168201915b5050848103835287818154600181600116156101000203166002900481526020019150805460018160011615610100020316600290048015612f385780601f10612f0d57610100808354040283529160200191612f38565b820191906000526020600020905b815481529060010190602001808311612f1b57829003601f168201915b5050848103825286818151815260200191508051906020019080838360005b83811015612f72578082015181840152602081019050612f57565b50505050905090810190601f168015612f9f5780820380516001836020036101000a031916815260200191505b5097505050505050505060405180910390a150565b828054600181600116156101000203166002900490600052602060002090601f016020900481019282601f10612ff557805160ff1916838001178555613023565b82800160010185558215613023579182015b82811115613022578251825591602001919060010190613007565b5b5090506130309190613034565b5090565b61305691905b8082111561305257600081600090555060010161303a565b5090565b905600a165627a7a7230582057b9b065f538c65e00f9af11bcfc128ea94d679d70fa76c4a1f4b9f0c10711a00029",
  "source": "pragma solidity ^0.4.24;\n\ncontract WorkbenchBase {\n    event WorkbenchContractCreated(string applicationName, string workflowName, address originatingAddress);\n    event WorkbenchContractUpdated(string applicationName, string workflowName, string action, address originatingAddress);\n\n    string internal ApplicationName;\n    string internal WorkflowName;\n\n    constructor(string applicationName, string workflowName) internal {\n        ApplicationName = applicationName;\n        WorkflowName = workflowName;\n    }\n\n    function ContractCreated() internal {\n        emit WorkbenchContractCreated(ApplicationName, WorkflowName, msg.sender);\n    }\n\n    function ContractUpdated(string action) internal {\n        emit WorkbenchContractUpdated(ApplicationName, WorkflowName, action, msg.sender);\n    }\n}\n\ncontract SupplyChainTransportation is WorkbenchBase(\"SupplyChainTransportation\", \"SupplyChainTransportation\")\n{\n    enum StateType { BeginTrade, ExportClearance, ShipmentInitiation, ShipmentBoarding, TransferBillOfLading, ShipmentInTransit, ImportClearance, RecoverShipment, ShipmentDelivery, ShipmentFinalize, ShipmentComplete, Terminated }\n    uint[] lastAction;\n    bool public Killed;\n    address public InstanceShipper;\n    string public Description;\n    StateType public State;\n\n    address public InstanceFreightCarrier;\n    address public InstanceOriginCustoms;\n    address public InstanceDrayageAgent;\n    address public InstanceDestinationCustomsBroker;\n    address public InstanceDestinationCustoms;\n    address public InstanceConsignee;\n\n    string public Seller;\n    string public PortOfDischarge;\n    string public OriginBank;\n    string public ExportDocument;\n    string public CustomsDocument;\n    string public ShippingDocuments;\n    string public DraftBillOfLadingDocument;\n    string public FinalBillOfLadingDocument;\n    string public ReleaseOrderDocument;\n    string public DeliveryOrderDocument;\n\n    constructor(address creator, string description, address freightCarrier, address originCustoms, address consignee) public{\n        InstanceShipper = creator;\n        Description = description;\n        State = StateType.BeginTrade;\n        InstanceFreightCarrier = freightCarrier;\n        InstanceOriginCustoms = originCustoms;\n        InstanceConsignee = consignee;\n        lastAction.push(now);\n        ContractCreated();\n    }\n\n    function Terminate() public{\n        if (State == StateType.ExportClearance) \n        {\n            require(msg.sender == InstanceOriginCustoms);\n        }\n        else if (State == StateType.ImportClearance) \n        {\n            require(msg.sender == InstanceDestinationCustoms);\n        }\n        else if (State == StateType.ShipmentFinalize) \n        {\n            require(msg.sender == InstanceConsignee);\n        }\n        State = StateType.Terminated;\n        lastAction.push(now);\n        ContractUpdated('Terminate');\n    }\n\n\n    function ApproveExportDocumentation() public\n    {\n        if(State == StateType.ExportClearance)\n        {\n            require(msg.sender == InstanceOriginCustoms);\n            State = StateType.ShipmentInitiation;\n            lastAction.push(now);\n        }\n        else\n        {\n            revert();\n        }\n\n        ContractUpdated('ApproveExportDocumentation');\n    }\n\n    function SendDeliveryOrderForConsigneeSignature() public\n    {\n        if(State == StateType.ShipmentDelivery)\n        {\n            require(msg.sender == InstanceDrayageAgent);\n            State = StateType.ShipmentFinalize;\n            lastAction.push(now);\n        }\n        else\n        {\n            revert();\n        }\n\n        ContractUpdated('SendDeliveryOrderForConsigneeSignature');\n    }\n\n    function ApproveDelivery() public\n    {\n        if(State == StateType.ShipmentFinalize)\n        {\n            require(msg.sender == InstanceConsignee);\n            State = StateType.ShipmentComplete;\n            lastAction.push(now);\n        }\n        else\n        {\n            revert();\n        }\n\n        ContractUpdated('ApproveDelivery');\n    }\n\n    function AmendExportDocumentation() public\n    {\n        if(State == StateType.ExportClearance)\n        {\n            require(msg.sender == InstanceOriginCustoms);\n            State = StateType.BeginTrade;\n            lastAction.push(now);\n        }\n        else\n        {\n            revert();\n        }\n\n        ContractUpdated('AmendExportDocumentation');\n    }\n    \n    function AmendBillOfLading() public\n    {\n        if(State == StateType.ShipmentBoarding)\n        {\n            require(msg.sender == InstanceFreightCarrier);\n            State = StateType.ShipmentInitiation;\n            lastAction.push(now);\n        }\n        else\n        {\n            revert();\n        }\n\n        ContractUpdated('AmendBillOfLading');\n    }\n\n    function AmendImportDocuments() public\n    {\n        if(State == StateType.ImportClearance)\n        {\n            require(msg.sender == InstanceDestinationCustoms);\n            State = StateType.ShipmentInTransit;\n            lastAction.push(now);\n        }\n        else\n        {\n            revert();\n        }\n\n        ContractUpdated('AmendImportDocuments');\n    }\n\n    function ExportClearance (string seller, string portOfDischarge, string originBank, string exportDocument, string customsDocument) public \n    {\n        require(State == StateType.BeginTrade);\n        require(msg.sender == InstanceShipper);\n       \n        Seller = seller;\n        PortOfDischarge = portOfDischarge;\n        OriginBank = originBank;\n        ExportDocument = exportDocument;\n        CustomsDocument = customsDocument;\n\n        State = StateType.ExportClearance;\n        lastAction.push(now);\n        ContractUpdated(\"ExportClearance\");\n    }\n\n    function UploadShippingDocuments(string shippingDocuments, string draftBillOfLadingDocument) public\n    {\n        require(State == StateType.ShipmentInitiation);\n        require(msg.sender == InstanceShipper);\n\n        ShippingDocuments = shippingDocuments;\n        DraftBillOfLadingDocument = draftBillOfLadingDocument;\n\n        State = StateType.ShipmentBoarding;\n        lastAction.push(now);\n        ContractUpdated(\"UploadShippingDocuments\");\n    }\n\n    function UploadFinalBillOfLading(string finalBillOfLadingDocument) public\n    {\n        require(State == StateType.ShipmentBoarding);\n        require(msg.sender == InstanceFreightCarrier);\n\n        FinalBillOfLadingDocument = finalBillOfLadingDocument;\n        State = StateType.TransferBillOfLading;\n        lastAction.push(now);\n        ContractUpdated(\"UploadFinalBillOfLading\");\n    }\n\n    function TransferBillOfLading(address destinationCustomsBroker, address destinationCustoms) public {\n        require(State == StateType.TransferBillOfLading);\n        require(msg.sender == InstanceShipper);\n      \n        InstanceDestinationCustomsBroker = destinationCustomsBroker;\n        InstanceDestinationCustoms = destinationCustoms;\n      \n        State = StateType.ShipmentInTransit;\n        lastAction.push(now);\n        ContractUpdated(\"TransferBillOfLading\");\n    }\n\n    function SendBillOfLadingToCustoms(address drayageAgent) public {\n        require(State == StateType.ShipmentInTransit);\n        require(msg.sender == InstanceDestinationCustomsBroker);\n        \n        InstanceDrayageAgent = drayageAgent;\n        \n        State = StateType.ImportClearance;\n        lastAction.push(now);\n        ContractUpdated(\"SendBillOfLadingToCustoms\");\n    }\n\n    function SendReleaseOrder(string releaseOrderDocument) public\n    {\n        require(State == StateType.ImportClearance);\n        require(msg.sender == InstanceDestinationCustoms);\n\n        ReleaseOrderDocument = releaseOrderDocument;\n\n        State = StateType.RecoverShipment;\n        lastAction.push(now);\n        ContractUpdated(\"SendReleaseOrder\");\n    }\n\n    function SendDeliveryOrder(string deliveryOrderDocument) public\n    {\n        require(State == StateType.RecoverShipment);\n        require(msg.sender == InstanceDestinationCustomsBroker);\n\n        DeliveryOrderDocument = deliveryOrderDocument;\n\n        State = StateType.ShipmentDelivery;\n        lastAction.push(now);\n        ContractUpdated(\"SendDeliveryOrder\");\n    }\n    \n    function getMetaData() view public returns(bool _killed, string _Description, StateType _State, uint timeSinceLastAction, uint[] _lastAction)\n    {\n        _killed = Killed;\n        _Description = Description;\n        _State = State;\n        timeSinceLastAction = now - lastAction[lastAction.length-1];\n        _lastAction = lastAction;\n    }\n\n    function kill() public\n    // destroy contract\n    {\n        require(State == StateType.Terminated || State == StateType.ShipmentComplete);\n        require(msg.sender == InstanceShipper);\n        require(!Killed);\n        Killed = true;\n        selfdestruct(InstanceShipper);\n    }\n}\n",
  "sourcePath": "/media/pyofey/DATA/Coding/Web/2018_10_29_azure_truffle/contracts/SupplyChainTransportation.sol",
  "compiler": {
    "name": "solc",
    "version": "0.4.24+commit.e67f0147.Emscripten.clang"
  },
  "schemaVersion": "2.0.1",
  "updatedAt": "2019-01-30T22:55:54.888Z"
}